:0400000002005F3269
:01000B0032C2
:0100130032BA
:01001B0032B2
:03002300021D2893
:03002B00021BCEE7
:0300BC0002002E11
:03002E000200BF0E
:2000BF00121AF890000A121B2690840075F003E4121C1CD2AF900032121B261200EC120BB5
:0D00DF00B1120D0F9003E8121B260205560A
:2000EC0053FC7775FA6043BAB053BABF75FB0322C29475F90530FBFD75F9FF30FBFDAFF923
:20010C00900001EFF0D2948F82221200FCE58230E0051200FC80F322E582900008F0C29458
:20012C0075F90130FBFD900008E0F5F930FBFDD29422C29475F90630FBFDD294221200FC7E
:20014C00E58220E10302013E22120149C29475F96030FBFDD294020116AF82AE83ADF0FCA3
:20016C00900009EFF0EEA3F0EDA3F0ECA3F0900001E4F0C29475F90330FBFD900009E0A30B
:20018C00E0FDA3E0FEA3E08E028AF930FBFD8DF930FBFD900009E0FCA3E0A3E0A3E08CF906
:2001AC0030FBFD75F9FF30FBFDAFF9900001EFF0D2948F8222AF82AE83ADF0FC900012EF39
:2001CC00F0EEA3F0EDA3F0ECA3F0900002E4F0A3F090000DE0FDA3E0FEA3E0FF900010E0AD
:2001EC00FBA3E0FC900012E0F510A3E0F511A3E0F512A3E0F513900002E0F9A3E0FAC3E9C0
:20020C009BEA9C5079C003C004E92DF9EA3EF88F028510828511838512F0E513C007C00665
:20022C00C005C003C002C001C000120165AC82D000D001D002D003D005D006D007898288E6
:20024C00838AF0EC12246B0510E4B5100C0511B511070512B512020513900012E510F0E5F7
:20026C0011A3F0E512A3F0E513A3F0900002E02401F0A3E03400F0D004D00302020290004E
:20028C0012E510F0E511A3F0E512A3F0E513A3F022AF83E582900019F0EFA3F012013EC2D4
:2002AC009475F90230FBFD900019E0FEA3E0FF8E048F057C008DF930FBFD8EF930FBFD7589
:2002CC00F90030FBFD900004E4F0A3F0900016E0FDA3E0FEA3E0FF900004E0FBA3E0FCEB97
:2002EC002DFBEC3EFC8F028B828C838AF01230C2F5F930FBFD900004E02401F0A3E0340023
:20030C00F0900004E0A3E0C3940140CBD294020116AF83E582900020F0EFA3F0900006E4D3
:20032C00F0A3F090001BE0FDA3E0FEA3E0FF90001EE0FBA3E0FC900020E0F9A3E0FAC005D0
:20034C00C006C0078B008C078F007F00900006E0FDA3E0FE8D148E15C3E51498E5159FD0E3
:20036C0007D006D0055058C003C004AC147800900016E82DF0EC3EA3F0EFA3F089828A8356
:20038C00C007C006C005C004C003C002C00112029DD001D002D003D004D005D006D007096F
:2003AC00B900010A900020E9F0EAA3F0900006E02401F0A3E03400F0D004D00302034A90AF
:0803CC000020E9F0EAA3F02291
:2003D400E582900022F0E0FF600FBF01028011BF02028013BFFF1E80159030E275F08022EF
:2003F4009033E275F080229039E275F08022904CA275F080229030E275F08022AFF0AE838D
:20041400E582900029F0EEA3F0EFA3F0900029E0FDA3E0FEA3E0FF74E2C0E07430C0E0746E
:2004340080C0E08D828E838FF01200311581158115816002802C900023E0FAA3E0FBA3E048
:20045400FC8A828B838CF0740812246B900026E0FAA3E0FBA3E0FC8A828B838CF074080238
:20047400246B74E2C0E07433C0E07480C0E08D828E838FF012003115811581158160028082
:200494002C900023E0FAA3E0FBA3E0FC8A828B838CF0740812246B900026E0FAA3E0FBA32E
:2004B400E0FC8A828B838CF0741002246B74E2C0E07439C0E07480C0E08D828E838FF01219
:2004D40000311581158115816002802C900023E0FAA3E0FBA3E0FC8A828B838CF07414124D
:2004F400246B900026E0FAA3E0FBA3E0FC8A828B838CF0742802246B74A2C0E0744CC0E0F3
:200514007480C0E08D828E838FF0120031158115811581600122900023E0FDA3E0FEA3E078
:20053400FF8D828E838FF0744012246B900026E0FDA3E0FEA3E0FF8D828E838FF0743002D9
:02055400246B16
:2030E20000000000000000000000065F5F0600000003030003030000147F7F147F7F1400C0
:20310200242E6B6B3A120000466630180C666200307A4F5D377A4800040703000000000014
:20312200001C3E63410000000041633E1C000000082A3E1C1C3E2A0808083E3E08080000DD
:203142000080E06000000000080808080808000000006060000000006030180C06030100FF
:203162003E7F71594D7F3E0040427F7F40400000627359496F660000226349497F360000A4
:20318200181C16537F7F5000276745457D3900003C7E4B4979300000030371790F07000077
:2031A200367F49497F360000064F49693F1E000000006666000000000080E6660000000015
:2031C200081C3663410000002424242424240000004163361C080000020351590F06000055
:2031E2003E7F415D5D1F1E007C7E13137E7C0000417F7F49497F36001C3E63414163220074
:20320200417F7F41633E1C00417F7F495D416300417F7F491D0103001C3E63415173720009
:203222007F7F08087F7F000000417F7F41000000307040417F3F0100417F7F081C776300E3
:20324200417F7F41406070007F7F0E1C0E7F7F007F7F060C187F7F001C3E6341633E1C00C7
:20326200417F7F49090F06001E3F21717F5E0000417F7F09197F6600266F4D5973320000B4
:2032820003417F7F410300007F7F40407F7F00001F3F60603F1F00007F7F3018307F7F003A
:2032A20043673C183C674300074F78784F070000476371594D677300007F7F414100000071
:2032C2000103060C183060000041417F7F000000080C0603060C0800808080808080808077
:2032E2000000030704000000207454543C784000417F3F4848783000387C44446C28000087
:20330200307848493F7F4000387C54545C180000487E7F490302000098BCA4A4F87C0400FD
:20332200417F7F08047C780000447D7D4000000060E08080FD7D0000417F7F10386C4400DD
:2033420000417F7F400000007C7C18381C7C78007C7C04047C780000387C44447C380000B0
:2033620084FCF8A4243C1800183C24A4F8FC8400447C784C041C1800485C54547424000083
:2033820000043E7F442400003C7C40403C7C40001C3C60603C1C00003C7C7038707C3C00DA
:2033A200446C3810386C44009CBCA0A0FC7C00004C64745C4C64000008083E7741410000A4
:2033C20000000077770000004141773E0808000002030103020301000000000000000000A7
:2033E20000000000000000000000000000000000000000F0000000000000000B00000000D0
:203402000000F000F000000000000000000000000040F040C0700000000603020F0200000E
:20342200006090FC101000000008083F09060000609090F0804000000002010609090600CF
:2034420000E01010102000000609090A0C060800000000F00000000000000000000000000E
:203462000000F0080808000000000F101010000000080808F0000000001010100F000000BC
:20348200008080E0808000000000030003000000008080F08080000000000007000000004D
:2034A200000000000000000000000038000000000080808080800000000000000000000052
:2034C2000000000000000000000000080000000000000000E018000000300C0300000000AB
:2034E20000E0101010E000000007080908070000002010F0000000000008080F0808000064
:203502000010101010E0000000080C0A0908000000109090D0200000000808080807000013
:2035220000E0000000E00000000302020207000000F0909090900000000408080807000066
:2035420000C0A09090900000000708080807000000301010907000000000000C03000000D4
:20356200006090909070000000070808080F000000E0101010E00000000909090503000088
:20358200000000400000000000000008000000000000004000000000000000380000000069
:2035A200008040402020000000010102040400000040404040400000000202020202000073
:2035C2000020204040800000000404020101000000201010906000000000000B0000000062
:2035E20000E0905050E00000001F2728280F00000000E010E0000000080702020207080040
:2036020000F0909090600000000F0808080D020000E010101010000000070808080800002B
:2036220000F0101010608000000F08080806010000F0909090100000000F0808080800007B
:2036420000F0101010100000000F010101010000806010101010000001060808090F0000D6
:2036620000F0808080F00000000F0000000F0000001010F0101000000008080F080800006B
:203682000000001010F00000000408080807000000F0000080600000000F01010106080005
:2036A20000F0000000000000000F08080808000000F0608060F00000000F0000000F0000AB
:2036C20000F0608000F00000000F0001060F000000E01010106080000007080808060100ED
:2036E20000F0101010F00000000F01010100000000E01010106080000007083848460100E0
:2037020000F0101010E00000000F0101030C000000609090101000000008080809060000C0
:20372200001010F0101000000000000F0000000000F0000000F00000000708080807000042
:2037420010E0000000E010000000070807000000708000C000807000000F0F000F0F000095
:203762000030408040300000000C0201020C00001020C000C02010000000000F00000000DB
:203782000010109050300000000C0A09080800000000FC040404000000001F101010000071
:2037A2000018608000000000000000030C30000000040404FC000000001010101F00000079
:2037C2000080601060800000000000000000000000000000000000000010101010100000C7
:2037E2000000106000000000000000000000000000404040C0000000000E0A0A060F080098
:2038020000F8404040800000000F0808080700000080404040400000000708080808000099
:203822000080404040F8000000070808080F0000008040404080000000070A0A0A0B000030
:203842008080C0B08888000000000700000000000080404040C0000000474848683F000061
:2038620000F8404040800000000F0000000F0000004040D0100000000008080F0808000061
:2038820000004040D0000000004040403F00000000F8000000C00000000F0202030C0000FD
:2038A200000808F0000000000000000F08080000008040C040C00000000F000F000F00003A
:2038C20000C0404040800000000F0000000F000000804040408000000007080808070000E2
:2038E20000C0404040800000007F0808080F00000080404040C0000000070808087F000082
:203902000040C0404040800000080F08080000000080404040400000000909090A0E00008B
:203922004040F04040400000000007080808000000C0000000C0000000070808080F080080
:2039420000C0000000C000000000070806010000408000C000804000000F0F000F0F000053
:203962000040800080400000000804030408000000C0000000C000000041261806010000A4
:2039820000404040C040000000080E0B0808000000008078080800000000001F10100000ED
:2039A200000000FC000000000000003F0000000000080878800000000010101F0000000083
:2039C20000808000000000000001000102030000F808F800000000000F080F0000000000C0
:2039E2000000000000000000000000000000000000000000000000000000000000000000C5
:203A020000000000000000000000022222222200000000007FFFFFFFFF7000000004FFFF2D
:203A2200FFFFFFF7000000617FFFFFFFFF91700007FD12222222220AFA000FFF50000000B3
:203A4200002FFF200FFF50000000002FFF200FFF50000000002FFF200FFF50000000002F31
:203A6200FF200FFF50000000002FFF200FFF50000000002FFF200FFF50000000002FFF2021
:203A82000FFF50000000002FFF200FFC200000000006FF200F50000000000000192001008F
:203AA2000000000000000000050000000000000002100FD50000000000029F200FFF5000EA
:203AC2000000002FFF200FFF50000000002FFF200FFF50000000002FFF200FFF50000000E0
:203AE200002FFF200FFF50000000002FFF200FFF50000000002FFF200FFF50000000002F91
:203B0200FF200FFF50000000002FFF200DFF40000000001FFF1001D7055555555504F40035
:203B22000010AFFFFFFFFFD110000003FFFFFFFFFFF6000000004FFFFFFFFF400000000068
:203B4200000000000000000000000000000000000000000000000000000000000000000063
:203B6200000000000000000000000000000000000000000000000000000000000000000043
:203B8200000000000000000000000000000000000000000000000000000000000000000023
:203BA200000000000000000000000A0000000000000000009F000000000000000007FF0054
:203BC200000000000000004FFF00000000000000005FFF00000000000000005FFF000000D9
:203BE20000000000005FFF00000000000000005FFF00000000000000005FFF0000000000A9
:203C02000000005FFF00000000000000005FFF00000000000000005FFF0000000000000088
:203C2200002CFF0000000000000000005F00000000000000000001000000000000000000F7
:203C420004000000000000000004CF00000000000000005FFF00000000000000005FFF00CF
:203C6200000000000000005FFF00000000000000005FFF00000000000000005FFF00000028
:203C820000000000005FFF00000000000000005FFF00000000000000005FFF000000000008
:203CA2000000005FFF00000000000000003FFF000000000000000004FF0000000000000063
:203CC20000006F00000000000000000007000000000000000000000000000000000000006C
:203CE2000000000000000000000000000000000000000000000000000000000000000000C2
:203D02000000000000000000000000000000000000000000000000000000000000000000A1
:203D220000000000000000000000022222222200000000007FFFFFFFFF700000000AFFFF04
:203D4200FFFFFFF7000001DFFFFFFFFFFF917000012222222222220AFA00000000000000C0
:203D6200002FFF20000000000000002FFF20000000000000002FFF20000000000000002F28
:203D8200FF20000000000000002FFF20000000000000002FFF20000000000000002FFF2018
:203DA200000000000000002FFF200000022222222219FF200002CFFFFFFFFFD44D20008F54
:203DC200FFFFFFFFFFFFA1000404CFFFFFFFFFD500000FC402222222220000000FFF5000E3
:203DE2000000000000000FFF50000000000000000FFF50000000000000000FFF50000000A7
:203E0200000000000FFF50000000000000000FFF50000000000000000FFF50000000000086
:203E220000000FFF50000000000000000DFF400000000000000001D7055555555550000055
:203E42000010AFFFFFFFFFFA00000003FFFFFFFFFFFFA00000004FFFFFFFFFFFFA000000CA
:203E6200000000000000000000000000000000000000000000000000000000000000000040
:203E8200000000000000000000000000000000000000000000000000000000000000000020
:203EA200000000000000000000000000000000000000000000000000012222222222210034
:203EC200000001DFFFFFFFFFFD100000001DFFFFFFFFFFF100000001DFFFFFFFFD44400090
:203EE200000012222222214FF400000000000000009FF900000000000000009FF9000000B4
:203F020000000000009FF900000000000000009FF900000000000000009FF90000000000D7
:203F22000000009FF900000000000000009FF900000000000000009FF9000000122222223F
:203F4200214DF9000006FFFFFFFFFF61890003DFFFFFFFFFFFFD31000027FFFFFFFFFFC41C
:203F620013000000122222222105D900000000000000009FF900000000000000009FF90085
:203F8200000000000000009FF900000000000000009FF900000000000000009FF900000057
:203FA20000000000009FF900000000000000009FF900000000000000009FF9000000000037
:203FC2000000008FF800000035555555530AA0000004FFFFFFFFFF700000004FFFFFFFFF6D
:203FE200FFC1000004FFFFFFFFFFFA00000000000000000000000000000000000000000006
:2040020000000000000000000000000000000000000000000000000000000000000000009E
:2040220000000000000000000000000000000000000000000000000000000000000000007E
:20404200000000000000000000000000000000000000070000000000000007200F700000B1
:20406200000000005F200FF7000000000004FF200FFF40000000001FFF200FFF50000000AC
:20408200002FFF200FFF50000000002FFF200FFF50000000002FFF200FFF50000000002FEB
:2040A200FF200FFF50000000002FFF200FFF50000000002FFF200FFF50000000002FFF20DB
:2040C2000FFF50000000002FFF200FFC222222222219FF200F53CFFFFFFFFFC24D20018F59
:2040E200FFFFFFFFFFFF81000004CFFFFFFFFFF7221000000222222222029F200000000000
:204102000000002FFF20000000000000002FFF20000000000000002FFF20000000000000B3
:20412200002FFF20000000000000002FFF20000000000000002FFF20000000000000002F64
:20414200FF20000000000000002FFF20000000000000002FFF20000000000000001DFF2066
:204162000000000000000001DF2000000000000000003F20000000000000000004200000BA
:2041820000000000000000000000000000000000000000000000000000000000000000001D
:2041A2000000000000000000000000000000000000000000000000000000000000000000FD
:2041C200000000000000000000000000000000000000000000000000000002222222222231
:2041E200200000007FFFFFFFFFFF70000004FFFFFFFFFFF7000000617FFFFFFFFF70000071
:2042020007FD12222222220000000FFF50000000000000000FFF50000000000000000FFF34
:2042220050000000000000000FFF50000000000000000FFF50000000000000000FFF500012
:204242000000000000000FFF50000000000000000FFF50000000000000000FFC222222220D
:20426200220000000F53CFFFFFFFFFD40000018FFFFFFFFFFFFFA0000004CFFFFFFFFFD54B
:20428200021000000222222222029F20000000000000002FFF20000000000000002FFF2023
:2042A200000000000000002FFF20000000000000002FFF20000000000000002FFF20000012
:2042C20000000000002FFF20000000000000002FFF20000000000000002FFF2000000000F2
:2042E2000000001FFF100000455555555504F4000007FFFFFFFFFFD11000007FFFFFFFFF9F
:20430200FFF6000007FFFFFFFFFFFF40000000000000000000000000000000000000000065
:2043220000000000000000000000000000000000000000000000000000000000000000007B
:2043420000000000000000000000000000000000000000000000000000000000000000005B
:2043620000000000000000000000022222222222200000007FFFFFFFFFFF70000004FFFF83
:20438200FFFFFFF7000000617FFFFFFFFF70000007FD12222222220000000FFF50000000DF
:2043A200000000000FFF50000000000000000FFF50000000000000000FFF500000000000E1
:2043C20000000FFF50000000000000000FFF50000000000000000FFF5000000000000000C1
:2043E2000FFF50000000000000000FFC22222222220000000F53CFFFFFFFFFC20000018F29
:20440200FFFFFFFFFFFF80000404CFFFFFFFFFF722100FC40222222222029F200FFF5000A8
:204422000000002FFF200FFF50000000002FFF200FFF50000000002FFF200FFF5000000076
:20444200002FFF200FFF50000000002FFF200FFF50000000002FFF200FFF50000000002F27
:20446200FF200FFF50000000002FFF200FFF50000000001FFF1004FA155555555504F40084
:204482000031AFFFFFFFFFD110000003FFFFFFFFFFF6000000004FFFFFFFFF4000000000DE
:2044A2000000000000000000000000000000000000000000000000000000000000000000FA
:2044C2000000000000000000000000000000000000000000000000000000000000000000DA
:2044E2000000000000000000000000000000000000000000000000000000000000000000BA
:20450200000001DFFFFFFFFFFFFFD200001DFFFFFFFFFFFD2A000001DFFFFFFFFFD2AF0051
:20452200000015555555552AFF00000000000000005FFF00000000000000005FFF0000002B
:2045420000000000005FFF00000000000000005FFF00000000000000005FFF00000000003F
:204562000000005FFF00000000000000005FFF00000000000000005FFF000000000000001F
:20458200004FFF0000000000000000019F0000000000000000000400000000000000000027
:2045A200010000000000000000017F00000000000000004FFF00000000000000005FFF00CC
:2045C200000000000000005FFF00000000000000005FFF00000000000000005FFF000000BF
:2045E20000000000005FFF00000000000000005FFF00000000000000005FFF00000000009F
:204602000000005FFF00000000000000004FFF000000000000000007FF00000000000000E6
:2046220000009F0000000000000000000A00000000000000000000000000000000000000CF
:20464200000000000000000000000000000000000000000000000000000000000000000058
:20466200000000000000000000000000000000000000000000000000000000000000000038
:2046820000000000000000000000000000000000000000004FFFFFFFFF4000000003FFFF8C
:2046A200FFFFFFF600000031AFFFFFFFFFD1400004FA155555555507F7000FFF5000000055
:2046C200002FFF200FFF50000000002FFF200FFF50000000002FFF200FFF50000000002FA5
:2046E200FF200FFF50000000002FFF200FFF50000000002FFF200FFF50000000002FFF2095
:204702000FFF50000000002FFF200FFF40000000001AFF200F927FFFFFFFFF814D20045DF9
:20472200FFFFFFFFFFFD50100228FFFFFFFFFFFC41000F921555555555205D200FFF4000C8
:204742000000001DFF200FFF50000000002FFF200FFF50000000002FFF200FFF5000000065
:20476200002FFF200FFF50000000002FFF200FFF50000000002FFF200FFF50000000002F04
:20478200FF200FFF50000000002FFF200FFF50000000002FFF2004FA022222222207F7001A
:2047A20000307FFFFFFFFF9040000004FFFFFFFFFFF7000000007FFFFFFFFF70000000009B
:2047C20002222222220000000000000000000000000000000000000000000000000000004D
:2047E2000000000000000000000000000000000000000000000000000000000000000000B7
:20480200000000000000000000000000000000000000000000000000000000000000000096
:20482200000000004FFFFFFFFF4000000003FFFFFFFFFFF600000031AFFFFFFFFFD140000A
:2048420004FA155555555507F7000FFF50000000002FFF200FFF50000000002FFF200FFF8B
:2048620050000000002FFF200FFF50000000002FFF200FFF50000000002FFF200FFF5000E2
:204882000000002FFF200FFF50000000002FFF200FFF50000000002FFF200FFF5000000012
:2048A200002FFF200FC47FFFFFFFFF839F20045DFFFFFFFFFFFD42100028FFFFFFFFFFFC4E
:2048C200510000001555555555304D200000000000000019FF20000000000000002FFF20F9
:2048E200000000000000002FFF20000000000000002FFF20000000000000002FFF200000CC
:2049020000000000002FFF20000000000000002FFF20000000000000002FFF2000000000AB
:204922000000002FFF200000022222222207F70000007FFFFFFFFF9040000007FFFFFFFF51
:20494200FFF70000006FFFFFFFFFFF700000002222222222220000000000000000000000B9
:20496200000000000000000000000000000000000000000000000000000000000000000035
:20498200000000000000000000000000000000000000000000000000000000000000000015
:2049A2000000000000000000000000000000000000000000000000000000000000000000F5
:2049C2000000000000000000000000000000000000000000000000000000000000000000D5
:2049E2000000000000000000000000000000000000000000000000000000000000000000B5
:204A0200000000000000000000000000000000000000000000000000000000000000000094
:204A2200000000000000000000000000000000000000000000000000000000000000000074
:204A42000000000000000000000000000000000000000000000000000000000000000355FC
:204A620055555553000000001DFFFFFFFFD0000000009FFFFFFFFF3000000005FFFFFFFF2D
:204A8200F8000000000000000000000000000000000000000000000000000000000000001C
:204AA2000000000000000000000000000000000000000000000000000000000000000000F4
:204AC2000000000000000000000000000000000000000000000000000000000000000000D4
:204AE2000000000000000000000000000000000000000000000000000000000000000000B4
:204B0200000000000000000000000000000000000000000000000000000000000000000093
:204B2200000000000000000000000000000000000000000000000000000000000000000073
:204B4200000000000000000000000000000000000000000000000000000000000000000053
:204B6200000000000000000000000000000000000000000000000000000000000000000033
:204B8200000000000000000000000000000000000000000000000000000000000000000013
:204BA2000000000000000000000000000000000000000000000000000000000000000000F3
:204BC2000000000000000000000000000000000000000000000000000000000000000000D3
:204BE2000000000000000000000000000000000000000000000000000000000000000000B3
:204C0200000000000000000000000000000000000000000000000000000000000000000092
:204C220000000000000000000000000155510000000000000002FFF20000000000000002D6
:204C4200FFF20000000000000002FFF20000000000000002FFF20000000000000002FFF288
:204C62000000000000000002FFF2000000000000000000000000000000000000000000003F
:204C8200000000000000000000000000000000000000000000000000000000000000000012
:204CA20009B500000000000000000000004BA1000009B60005CDDDDDDDDDDDDC80003BB11E
:204CC200BFFF3000000000000000000002FFFB00009FFF403FFFFFFFFFFFFFFFF801FFFEDC
:204CE200FFFF6000000000000000000005FFFF0000CFFF807FFFFFFFFFFFFFFFFD03FFFF8D
:204D0200FFFF6000000000000000000005FFFF0000BFFF702FFFFFFFFFFFFFFFF603FFFFE3
:204D2200FFFF6000000000000000000005FFFF0000BFFF700377778FFFF977775003FFFF2B
:204D4200FFFF6000000000000000000005FFFF0000BFFF700000000EFFF100000003FFFFC3
:204D6200FFFF6000000000000000000005FFFF0000BFFF700000000EFFF300000003FFFFA1
:204D8200FFFF6000000000000000000005FFFF0000BFFF700000000EFFF300000003FFFF81
:204DA200FFFF6000000000000000000005FFFF0000BFFF700000000EFFF300000003FFFF61
:204DC200FFFF4000000000000000000003FFFF0000BFFF700000000EFFF300000003FFFF63
:204DE200FFFFB00000000000000000000AFFFF0000BFFF700000000EFFF300000003FFFFCC
:204E0200EFFFFB000000000000000000AFFFFE0000BFFF700000000EFFF300000003FFFFCC
:204E22004FFFFFA00000000000000009FFFFF60000BFFF700000000EFFF300000003FFFF57
:204E420006FFFFFA000000000000008FFFFF700000BFFF700000000EFFF300000003FFFF26
:204E6200006FFFFFA0000000000009FFFFF7000000BFFF700000000EFFF300000003FFFFF6
:204E82000007FFFFF800000000008FFFFF80000000BFFF700000000EFFF300000003FFFFD7
:204EA20000007FFFFF9000000008FFFFF800000000BFFF700000000EFFF300000003FFFFB6
:204EC200000007FFFFFA0000008FFFFF8000000000BFFF700000000EFFF300000003FFFF95
:204EE2000000008FFFFF900007FFFFF90000000000BFFF700000000EFFF300000003FFFF66
:204F020000000008FFFFF8007FFFFF900000000000BFFF700000000EFFF300000003FFFF55
:204F2200000000009FFFFF66FFFFF9000000000000BFFF700000000EFFF300000003FFFF46
:204F42000000000009FFFFFFFFFF90000000000000BFFF700000000EFFF300000003FFFF8C
:204F620000000000009FFFFFFFF900000000000000BFFF700000000EFFF300000003FFFF6B
:204F8200000000000007FFFFFF8000000000000000BFFF700000000EFFF300000003FFFF5C
:204FA200000000000003FFFFFF5000000000000000BFFF700000000EFFF300000003FFFF70
:204FC20000000000005FFFFFFFF600000000000000BFFF700000000EFFF300000003FFFF4E
:204FE2000000000006FFFFFFFFFF60000000000000BFFF700000000EFFF300000003FFFF1F
:20500200000000005FFFFFA9FFFFF6000000000000BFFF700000000EFFF300000003FFFF65
:2050220000000005FFFFFC00BFFFFF600000000000BFFF700000000EFFF300000003FFFF23
:205042000000005FFFFFC0000BFFFFF60000000000BFFF700000000EFFF300000003FFFF03
:20506200000004FFFFFD000000CFFFFF5000000000BFFF700000000EFFF300000003FFFFE3
:2050820000004FFFFFC00000000CFFFFF500000000BFFF700000000EFFF300000003FFFFD3
:2050A2000004FFFFFC0000000000CFFFFF50000000BFFF700000000EFFF300000003FFFFA4
:2050C200003FFFFFD000000000000CFFFFF4000000BFFF700000000EFFF300000003FFFF94
:2050E20003FFFFFD00000000000000CFFFFF400000BFFF700000000EFFF300000003FFFF74
:205102002FFFFFD0000000000000000CFFFFF30000BFFF600000000EFFF300000001FFFF76
:20512200DFFFFE000000000000000000DFFFFD0000BFFFB00000000FFFF400000007FFFF41
:20514200FFFFD107CCCCCCCCCCCCCC800CFFFF0000CFFFFA0000000FFFF30000006FFFFF23
:20516200FFFF505FFFFFFFFFFFFFFFF604FFFF00004FFFFFA0000007FFC0000006FFFFF8E0
:20518200FFFF509FFFFFFFFFFFFFFFFB04FFFF000006FFFFF9000000560000005FFFFFB0CA
:2051A200FFFF603FFFFFFFFFFFFFFFF405FFFF0000007FFFFF90000000000005FFFFFB0055
:2051C200FFFF6003777777777777773005FFFF00000007FFFFFA00000000005FFFFFB000EC
:2051E200FFFF6000000000000000000005FFFF000000007FFFFF9000000004FFFFFC000041
:20520200FFFF6000000000000000000005FFFF0000000008FFFFF95555547FFFFFC00000F1
:20522200FFFF6000000000000000000005FFFF00000000008FFFFFFFFFFFFFFFFC00000087
:20524200FFFF6000000000000000000005FFFF000000000009FFFFFFFFFFFFFFD000000019
:20526200EFFF4000000000000000000003FFFE0000000000009FFFFFFFFFFFFD0000000067
:205282002DE900000000000000000000008ED300000000000007EFFFFFFFFFB000000000F3
:20055600900579E4F090057AF07404A3F090002C75F0001224431200EC758200120CC99093
:20057600050C7418F0E4A3F090050EF090050F740FF090051074A2F07452A3F07480A3F02C
:200596009000801217847F00EF70030206B790054DE4F07404A3F090000075F000C0071259
:2005B6001F52AD82AE83900430EDF0EEA3F0C005C00674ADC0E07452C0E07480C0E0743246
:2005D600C0E07404C0E0E4C0E0122676E58124F8F58190050C7430F0E4A3F090050EF09054
:2005F600050F740FF09005107432F07404A3F0E4A3F0900080121784D007900430E0FDA3C9
:20061600E0FEBD0005BE0402800302059E900430E4F0A3F07D007E008D038E0474FC2C4014
:200636002BED242CF582EE3400F583E0FC7B00900430E0F9A3E0FAEC29F9EB3AFA900430C9
:20065600E9F0EAA3F00DBD00CF0E80CC900430E0FDA3E0FE90042EE0FBA3E0FCEDB5033325
:20067600EEB5042F90042CE0FDA3E0FE90001B742CF07400A3F0E4A3F090001EF07404A3FE
:20069600F08D828E8312031D9052B775F080121DCD80099052BC75F080121DCD7F000205FA
:2006B6009EC007121E23AE82D0077D00900430EEF0EDA3F0BE5505BD0002801DBEA505BD2D
:2006D6000002807CBEA906BD00030207D1BEAA06BD000302084C0208929005497402F0900B
:2006F600043075F000C007121E8DE582D007700302059E900430E0FDA3E0FEBD3205BE326B
:2007160002800302059E90050C7430F0E4A3F090050EF090050F740FF090051074C1F07405
:2007360052A3F07480A3F0900080C0071217841201559052B775F080121DCDD00702059E55
:200756009005497402F090043075F000C007121E8DE582D007700302059E900430E0FDA3F8
:20077600E0FE90042CEDF0EEA3F0C007C005C00674C7C0E07452C0E07480C0E07432C0E0FA
:200796007404C0E0E4C0E0122676E58124F8F58190050C7424F0E4A3F090050EF090050F2A
:2007B600740FF09005107432F07404A3F0E4A3F0900040121784D00702059E9005497402A6
:2007D600F090043075F000C007121E8DE582D007700302059E900430E0FDA3E0FE90042E2C
:2007F600EDF0EEA3F0C007C005C00674D1C0E07452C0E07480C0E07432C0E07404C0E0E412
:20081600C0E0122676E58124F8F58190050C7424F0E4A3F090050EF090050F740FF090059D
:20083600107432F07404A3F0E4A3F09000C0121784D00702059E9005497402F09004307584
:20085600F000C007121E8DE582D007602F900430E0FDA3E0FEBD5524BEAA217F0190054DFE
:20087600E4F07404A3F090002C75F000C007121F529052DA75F080121DCDD007900430E000
:20089600FDA3E07E00C007C005C00674DFC0E07452C0E07480C0E07432C0E07404C0E0E4C3
:2008B600C0E0122676E58124F8F5819005037404F0E4A3F0900505F09005067404F0900543
:1608D600077432F07404A3F0E4A3F0900004121398D00702059E20
:2052A200524F4D204C4F4144455200524543563A25303464004F4B210A004552520A0045D3
:2052C2005241534500504147453A253034580043484B3A2530345800474F210A00474554D7
:0652E2003A2530325800AD
:2008EC00E5A104F5A1E5A104F5A1E5A104F5A1E5A104F5A1E5A104F5A1E5A104F5A1E5A1A6
:20090C0004F5A1E5A104F5A122E5829004B8F0C2C1C2C0C2B61208EC9004B8E0F58012080E
:20092C00ECD2B61208ECD2C122E5829004BAF0C2C1C2C0C2B61208EC9004BAE0F580120897
:20094C00ECD2B61208ECD2C0C2B61208EC9004B9E0F5801208ECD2B61208ECD2C122E582AF
:20096C009004BDF0C2C1C2C0C2B61208EC9004BDE0F5801208ECD2B61208ECD2C0C2B61251
:20098C0008EC9004BBE0FEA3E0FF8E80C007C0061208ECD2B61208ECC2B61208ECD006D055
:2009AC00078F801208ECD2B61208ECD2C122AF83E5829004C4F0EFA3F09004C4E0FEA3E0B0
:2009CC00C313CE13CEC313CE13CE9004ABEEF09004BEE0FDA3E09004ACEDF09004C0E0FCE5
:2009EC00A3E0FF1CBCFF011FEFC313CC13CCC313CC13CCEC2EFC9004ADF09004C2E0FBA366
:200A0C00E0EB2D149004AEF07F00741C2EFEE43FFF7D00741C2CFCE43D8C05E44206ED42ED
:200A2C00079004BBEEF0EFA3F075821512096A9004AEE0FE7F009004ACE07C004207EC42B1
:200A4C00069004BBEFF0EEA3F075827502096AAF83E5829004D0F0EFA3F09004D0E0FEA3A0
:200A6C00E0FF9004C6E0FCA3E0FD9004C8E0FAA3E0FB9004CAE0F8A3E0F99004BEECF0ED54
:200A8C00A3F09004C0EAF0EBA3F09004C2E8F0E9A3F08E828F83C003C002C001C00012091E
:200AAC00BA75825C120915D000D001D002D003D2C0C2C190057DE8F0E9A3F08A828B831200
:200ACC002486AE82E583C313CE13CEFF9004A9EEF0EFA3F09004CCE0FDA3E0FEA3E0FF90D7
:200AEC0004CCE0F5F0A3E045F0704B9004B6E4F0A3F09004CFE0FC9004B6E0FAA3E0FB90C0
:200B0C0004A9E0F8A3E0F9C3EA98EB994003020BAEC2B6C0041208ECD0048C80C004120801
:200B2C00ECD2B61208ECD0049004B6E02401F0A3E03400F080C19004B6E4F0A3F09004B639
:200B4C00E0FBA3E0FC9004A9E0F9A3E0FAC3EB99EC9A504EC2B6C007C006C0051208ECD091
:200B6C0005D006D0079004B6E0FBA3E0FCEB2DFBEC3EFC8F028B828C838AF01230C2F5803A
:200B8C00C007C006C0051208ECD2B61208ECD005D006D0079004B6E02401F0A3E03400F0FB
:200BAC00809BD2C12275C203D2A0D2B6D2B7D2C0D2C17580FFC2A090012C121B26D2A0900F
:200BCC000032121B269004B97412F07582FD1209357582AE1209159004B97491F07582B3BC
:200BEC001209359004B9743FF07582CA1209359004B9E4F07582A21209359004B9E4F075F8
:200C0C0082A11209359004B97414F07582A01209359004B9E4F07582B51209359004B974CB
:200C2C0001F07582AB1209359004BB74A0F074FDA3F07582B412096A9004B974FFF0758297
:200C4C00C11209359004B9740FF07582C71209357582B91209159004B974E2F07582B1127C
:200C6C0009359004BB7482F07420A3F07582D112096A9004B9741FF07582BB12093590041B
:200C8C00B97408F07582B61209359004B97407F07582BE1209357582A412091590003212CA
:200CAC001B267582AF120915900064121B26758200120CC97582A61209150200ECE582903A
:200CCC0004D2F0E053E00FF09004D2E0FFFEEEC454F042079004A8EFF09004C6E4F0A3F0D2
:200CEC009004C8F004A3F09004CA7440F0E4A3F09004CCF0A3F0A3F09004CFEFF090000044
:200D0C00020A5B7582FF1203D4AD82AE83AFF09004A2EDF0EEA3F0EFA3F090002374A5F0B0
:200D2C007404A3F0E4A3F090002674A6F07404A3F0E4A3F08D828E838FF012041075820027
:200D4C00120CC99004A5E0FF7E009004A6E0FD7C009004A2E0F9A3E0FAA3E0FB9004DE7487
:200D6C0020F0E4A3F09004E0EFF0EEA3F09004E2EDF0ECA3F09004E4E9F0EAA3F0EBA3F0EE
:200D8C00900080020DFFAF83E5829004DCF0EFA3F09004DCE0FEA3E0FF9004D3E0FCA3E018
:200DAC00FD9004D5E0F523A3E0F5249004D7E0F521A3E0F5229004D9E0F8A3E0F9A3E0FBF3
:200DCC009004C6ECF0EDA3F09004C8E523F0E524A3F09004CAE521F0E522A3F09004CCE82B
:200DEC00F0E9A3F0EBA3F09004CFE4F08E828F83020A5BAF83E5829004E7F0EFA3F0900423
:200E0C00E0E0FEA3E0FF8E048F05EDC313CC13CCFD9004E7E0FAA3E0FBEAC39CFCEB9DFD58
:200E2C008C278D289004E2E0FAA3E0FB8A008B018825E9C313C52513C525F5269004DEE09A
:200E4C00F8A3E0F9E8C39525F8E99526F9882589269004E4E0F8A3E0F9A3E0FD9004D3E524
:200E6C0025F0E526A3F09004D5EEF0EFA3F09004D7EAF0EBA3F09004D9E8F0E9A3F0EDA3D6
:200E8C00F0852782852883020D92AF83E5829004F3F0EFA3F09004EBE0FEA3E0FFE4C39EA1
:200EAC00FC74019FFD9004F3E0FAA3E0FBC3EC9AED9B50219004F3E4F0A3F09004EDE0FCAD
:200ECC00A3E0FD9004E9E0FAA3E0FB9004E9EC2AF0ED3BA3F09004B3E4F09004EFE0FDC434
:200EEC00540FFC8D319004F0E0F532A3E0F533A3E0F5349004F3E0F529A3E0F52A9004E943
:200F0C00E0F52BA3E0F52C9004EDE0F52DA3E0F52EC004A82DAC2E882FECC423C52FC42320
:200F2C00541F652FC52F541FC52F652FC52FF5309004B3E0F87C00C3E8952FEC9530D00407
:200F4C004001229004B4E4F0C0049004B4E0F8FC7D00C3EC9EED9FD00440030210EEC004F5
:200F6C007D00740358FB9004A8EBF09004B3E090057DF0E4A3F08E828F83C007C006C005F3
:200F8C00C000122486AB82AC83D000D005D006D007E82BFBED3CFC9004A9EBF0ECA3F090C1
:200FAC0004B5E4F0D004C0049004B5E090057DF0E4A3F08E828F83C007C006C0041224862F
:200FCC00AB82AD83D004D006D0079004B4E0F97A00E92BFBEA3DC313CB13CBC313CB13CB58
:200FEC009004A7EBF0EB75F002A42442FB740435F0FD8B828D83E0F9A3E0FA9004A8E090BF
:20100C0052E893F888F005F0780F7C008006E828F8EC33FCD5F0F7E8F4F8ECF4FCE852013F
:20102C00EC52028B828D83E9F0EAA3F09004A7E075F002A42442F52F740435F0F530852FCB
:20104C0082853083E0F535A3E0F5369004A9E0FCA3E0FDEC2532FCED3533FDAB348C828D6E
:20106C00838BF01230C2FC9004B5E0FD8DF005F07D017B008006ED2DFDEB33FBD5F0F77AE9
:20108C0000EC5205EA5203D004ED4B6009AB3153030F7D0080048C037D009004A8E0905201
:2010AC00E893FA8AF005F08006EB2BFBED33FDD5F0F7A935AA36EB4201ED4202852F8285F8
:2010CC003083E9F0EAA3F09004B5E02401F0E0FDBD08005003020FB29004B4E02401F002C6
:2010EC000F549004B3E0FDE4C40354F8CDC403CD6DCD54F8CD6DFBA92BAA2CED29F9EB3A6C
:20110C00FA9004D3E9F0EAA3F09004D5EEF0EFA3F09004D77408F0E4A3F09004D97442F0E2
:20112C007404A3F0E4A3F0852982852A83C007C006C004120D92D004D006D0079004B3E015
:20114C002401F0020F1DAF83E5829004FAF0EFA3F09004F9E024E0F09004F7E0F58212034F
:20116C00D4AD82AE83AFF09004A2EDF0EEA3F0EFA3F090002374A5F07404A3F0E4A3F090AC
:20118C00002674A6F07404A3F0E4A3F08D828E838FF01204109004FAE0FEA3E0FF9004F555
:2011AC00E0FCA3E0FD9004A5E0FB8B377538009004A6E0F88839753A009004F8E0F53B9096
:2011CC0004F9E0F5F0EBA4F9ABF090057DE8F0E4A3F089828B83C007C006C005C004122458
:2011EC0086A982AB8390057F7408F0E4A3F089828B831224A685823C85833DD004D005D017
:20120C0006D0079004A2E0F8A3E0FAA3E0FBE53C28F8E53D3AFA9004E9ECF0EDA3F09004D8
:20122C00EBE537F0E538A3F09004EDE539F0E53AA3F09004EFE53BF09004F0E8F0EAA3F04E
:20124C00EBA3F08E828F83C007C006120E96D006D0079004A5E0FDE4FCC39DFD74019CFC92
:20126C00C3ED9EEC9F50079004FAE4F0A3F022AFF0AE83E582900500F0EEA3F0EFA3F090CC
:20128C0004B1E4F0900500E0FDA3E0FEA3E0FF9004B1E0FC2DF9E43EFA8F0389828A838BAC
:2012AC00F01230C260089004B1EC04F080E17F001CBCFF011F9004FCE0FAA3E0FBA3E0FD62
:2012CC00A3E0FE8C00EFF93395E0FCFFEAB50012EBB5010EEDB5040AEEB507067C017F00AE
:2012EC0080047C007F008C3E9004B1E53EF0900500E0F53FA3E0F540A3E0F541EA253FF9E0
:20130C00EB3540FCAF4189828C838FF01230C2FF9004AFF0E53E600679007C0080240ABAC0
:20132C0000090BBB00050DBD00010EEA253FFAEB3540FBAD418A828B838DF01230C2FAF9D5
:20134C007C009004B0E9F0BFA1004005B9A10050067DFF7EFF80307C00EF245FFFEC34FFDE
:20136C00FC90057DEFF0ECA3F090005EC001122486AC82AF83D0017B00E9245FF9EB34FF5B
:20138C00FBE92CFDEB3FFE8D828E8322AF83E58290050AF0EFA3F09004B2E4F0900505E08C
:2013AC00F5488548821203D4AC82AD83AEF09004A2ECF0EDA3F0EEA3F090002374A5F0746D
:2013CC0004A3F0E4A3F090002674A6F07404A3F0E4A3F08C828D838EF0120410900506E074
:2013EC00FEC4540FF547900507E0F549A3E0F54AA3E0F54B854942854A43854B448E468EA9
:20140C0045C0069004B2E02542F8E43543F9AE44888289838EF01230C2D006700122C00622
:20142C009004A6E0F879007440C398F8E499F9900503E0FDA3E0FEC3E89DE99ED006501796
:20144C0090050AE4F0A3F0900503F0A3F0854782C006120CC9D006C0069004B2E09004FC12
:20146C00F0E4A3F0A3F0A3F08542828543838544F0C00612127BA982AD83D0069004A9E9CA
:20148C00F0EDA3F089008D06B8FF05BEFF028005D0060216999004B2E0F82549FCE4354A42
:2014AC00FEAF4B8C828E838FF01230C2F54C740AB54C028004D006802FD0069004B2E804B3
:2014CC00F090050AE4F0A3F09004A6E0FF7C00900503E0FAA3E0FBEF2AFAEC3BFB900503B8
:2014EC00EAF0EBA3F002140D7408B54C069004B2E804F09004B2E0FF2549FAE4354AFBAC29
:20150C004B8A828B838CF01230C2FCBC08028039BC0A0280030215F6C0069004B2EF04F018
:20152C0090050AE4F0A3F09004A6E0FB7A00900503E0F8A3E0FEEB28F8EA3EFE900503E868
:20154C00F0EEA3F0D00602140DC0069004B2EF04F090050AE0FBA3E0FF9004A5E0FAF87EA1
:20156C0000C3EB98EF9ED0064019C0068A007E00EBC398FBEF9EFF90050AEBF0EFA3F0D0F6
:20158C0006802FE4FFC39AFA74019FFF90050AEAF0EFA3F09004A6E0FF7B00900503E0F83E
:2015AC00A3E0FAE8C39FF8EA9BFA900503E8F0EAA3F090050AE0FBA3E0FF900503E0F8A3E5
:2015CC00E0FA9004F5E8F0EAA3F09004F7E548F09004F8E546F09004F97420F08B828F83C8
:2015EC00C006121152D00602140DC00690050AE0FBA3E0FF900503E0F8A3E0FA9004F5E88B
:20160C00F0EAA3F09004F7E548F09004F8E545F09004F9ECF08B828F83C007C006C003C06B
:20162C0002C000121152D000D002D003D006D0079004A5E0FC7E008B4D8F4E8C038E07EBEE
:20164C00254DFBEF354EFF90050AEBF0EFA3F0E4C39CFC74019EFE90050AE0FBA3E0FFC395
:20166C00EB9CEF9ED006401B90050AE4F0A3F09004A6E0FF7C0028F8EC3AFA900503E8F0CE
:20168C00EAA3F09004B2E02401F002140DE4FFC42354E0CFC423CF6FCF54E0CF6FFCEDC483
:2016AC0023541F4FFFEDC42354E0C9C423C969C954E0C969FD74082FFFE43CFC90000D744D
:2016CC0082F07404A3F0E4A3F09000107420F0E4A3F089828D838FF0ECC0061201C1D00679
:2016EC0090050AE0FDA3E0FF900503E0FBA3E0FC9004E9EBF0ECA3F09004EB7410F0E4A39D
:20170C00F09004ED7410F0E4A3F09004EFEEF09004F07482F07404A3F0E4A3F08D828F83F3
:20172C00C007C006C005C004C003120E96D003D004D005D006D00774102DFDE43FFF900580
:20174C000AEDF0EFA3F090050AE0FDA3E0FFC3ED94F0EF9400401690050AE4F0A3F074107F
:20176C002BFBE43CFC900503EBF0ECA3F09004B2E0FF2402F002140DAF83E582900513F09A
:20178C00EFA3F090050EE0FFF582C0071203D4AC82AD83AEF090002374A5F07404A3F0E46B
:2017AC00A3F090002674A6F07404A3F0E4A3F08C828D838EF0120410D0079004B1E4F09006
:2017CC000510E0FCA3E0FDA3E0FE9004B1E0FB2CF8E43DF98E02888289838AF01230C26029
:2017EC00089004B1EB04F080E19004A5E08BF0A4FAABF090057F7402F0E4A3F08A828B8378
:20180C00C007C006C005C0041224A6AA82AB83D004D005D006D007900513E0F8A3E0F9E836
:20182C00C39AF8E99BF990050CE0F54FA3E0F55090050FE0FB900503E54FF0E550A3F090AA
:20184C000505EFF0900506EBF0900507ECF0EDA3F0EEA3F088828983021398AF83E58290B8
:20186C00051CF0EFA3F090051BE053E00FF090051BE0FFFEEEC454F042079004A8EFF09090
:20188C00051CE0FDA3E0FE900515E0FBA3E0FC900517E0F551A3E0F552900519E0F8A3E014
:2018AC00FA9004C6EBF0ECA3F09004C8E551F0E552A3F09004CAE8F0EAA3F09004CCE4F03B
:2018CC00A3F0A3F09004CFEFF08D828E83020A5BAF83E582900525F0EFA3F0900520E0FEB5
:2018EC00A3E0FF8E048F05EDC313CC13CCFD900525E0FAA3E0FBEAC39CFCEB9DFD90052236
:20190C00E0FAA3E0FB8A008B018853E9C313C55313C553F55490051EE0F8A3E0F9E8C395E0
:20192C0053F8E99554F988538954900524E0F9900515E553F0E554A3F0900517EEF0EFA381
:15194C00F0900519EAF0EBA3F090051BE9F08C828D8302186768
:0452E80004000C08AA
:0400B800C200C201BF
:20196100AFF0AE83E58290052CF0EEA3F0EFA3F0900527E4F0A3F090052CE0FDA3E0FEA396
:20198100E0FF900529E0FC90052AE0FAA3E0FB900527E0F8A3E0F9C3E89AE99B5028C002A3
:2019A100C003E82DF8E93EF98F03888289838BF0EC12246B900527E02401F0A3E03400F02E
:2019C100D003D00280C922AFF0AE83E582900534F0EEA3F0EFA3F0900534E0FDA3E0FEA339
:2019E100E0FF90052FE0F566A3E0F567A3E0F568C066C067C0688D828E838FF012003115DD
:201A010081158115814003021A80900527E4F0A3F08D5F8E608F61900532E0F562A3E0F5D6
:201A210063900527E0F564A3E0F565E564255FF569E5653560F56A85616BE5642566FAE503
:201A4100653567FBAC688A828B838CF01230C2856982856A83856BF012246B900527E0FBE1
:201A6100A3E0FC90052774012BF0E43CA3F0900527E0FBA3E0FCEBB562A7ECB563A32290CF
:201A81000532E0FBA3E0FC1BBBFF011C900527EBF0ECA3F0900527E0FBA3E0FCEB2DF8EC9A
:201AA1003EF98F02C005C006C007EB2566FBEC3567FCAF688B828C838FF01230C2888289CD
:201AC100838AF012246B900527E0F569A3E0F56AD007D006D005900527E0F5F0A3E045F0D0
:201AE1006014E56924FFFBE56A34FFFC900527EBF0ECA3F0809E2275A15575A1AA53B3E020
:201B010043B30775B2FC75A1FF75A15575A1AA43B34090000A121B2675A15575A1AA53B310
:201B21007F75A1FF22AF83E582900537F0EFA3F0900537E0FEA3E0FFEE4F601D9003E8C0F6
:201B410007C006121B63D006D0071EBEFF011F900537EEF0EFA3F080DF900537EEF0EFA3B8
:201B6100F022AF83E582900539F0EFA3F0900539E0FEA3E0FFEE4F603505A105A105A10582
:201B8100A105A105A105A105A105A105A105A105A105A105A105A105A105A105A105A11ECB
:201BA100BEFF011F900539EEF0EFA3F080C7900539EEF0EFA3F02253C9BFC2C975CC5F7507
:201BC100CDF075CA5F75CBF0D2CAD2AD22C0E0C082C083C0D075D00810CF0280219005C45F
:201BE100E0FCA3E0FDA3E0FEA3E0FF9005C474012CF0E43DA3F0E43EA3F0E43FA3F0D0D0DC
:201C0100D083D082D0E0329005C4E0FCA3E0FDA3E0FEA3E08C828D838EF022AF82AE83ADB6
:201C2100F0FC900541EFF0EEA3F0EDA3F0ECA3F0C29FD29EC29DC2CCC2CD43878090054115
:201C4100E0FCA3E0FDA3E0FEA3E0FF90056CECF0EDA3F0EEA3F0EFA3F090380075F09C7487
:201C61001C12234FAC82AD83AEF0FFEDC4CCC4540F6CCC540FCC6CCCFDEEC454F04DFDEF59
:201C8100C4CEC4540F6ECE540FCE6ECEFF900563740AF0E4A3F0A3F0A3F08C828D838EF043
:201CA100EFC007C006C005C00412220FA882D004D005D006D00790053FE8F090056C740A30
:201CC100F0E4A3F0A3F0A3F08C828D838EF0EFC00012234FAC82AD83AEF0FFD00090053B0C
:201CE100ECF0EDA3F0EEA3F0EFA3F0B80500401390053B74012CF0E43DA3F0E43EA3F0E4C6
:201D01003FA3F0740F55894420F58943C9A090053BE0FCA3E0A3E0A3E0C3E49CF58DD28EA7
:201D2100D299D29CD2AC22C0E0C0F0C082C083C0D075D0081099028002C200109802806FEF
:201D410030014B9005E9E0FDA3E0FEA3E0FF9005ECE0FBA3E0FCEB2DFDEC3EFE8D828E8370
:201D61008FF0E59912246B9005ECE02401F0A3E03400F09005ECE0FEA3E0FF9005EEE0FC67
:201D8100A3E0FDC3EE9CEF9D4025C20180219005E8E0FFBF200050179005E8E024C8F582BE
:201DA100E43405F583E599F09005E8E0FF04F0D0D0D083D082D0F0D0E032E582900545F0B7
:201DC1002000FDD200900545E0F59922AFF0AE83E582900546F0EEA3F0EFA3F0900546E0E9
:201DE100FDA3E0FEA3E0FF8D828E838FF01230C2FC60230DBD00010E900546EDF0EEA3F0AE
:201E0100EFA3F08C82C007C006C005121DBBD005D006D00780D1900546EDF0EEA3F0EFA357
:201E2100F0229005E8E060609005C8E0900540F09005E8E014F0E060259005E8E0FF7E00D0
:201E410090052F74C9F07405A3F0E4A3F0900532EFF0EEA3F09005C875F0001219C890059C
:201E6100E8E024C8FFE43405FE7D00900529E4F090052A04F0E4A3F08F828E838DF0121990
:201E810061900540E0F5822275820022AFF0AE83E58290054AF0EEA3F0EFA3F09005E8E013
:201EA100FF900549E0FEC3EF9E5003021F4E90054AE0FCA3E0FDA3E0FF90052F74C8F07433
:201EC10005A3F0E4A3F08E027B00900532EAF0EBA3F08C828D838FF0C006C003C0021219B5
:201EE100C8D002D003D0069005E8E0C39EF0E06035EE24C8FEE43405FF7D009005E8E0F9B4
:201F01007C0090052FEEF0EFA3F0EDA3F0900532E9F0ECA3F09005C875F000C003C0021228
:201F210019C8D002D0039005E8E024C8FFE43405FE7D00900529E4F090052AEAF0EBA3F091
:201F41008F828E838DF01219617582012275820022AFF0AE83E58290054FF0EEA3F0EFA304
:201F6100F090054FE0FDA3E0FEA3E0FF90054FE0F5F0A3E045F060269005E9EDF0EEA3F0E9
:201F8100EFA3F09005ECE4F0A3F090054DE0FEA3E0FF9005EEEEF0EFA3F0D2018030900599
:201FA1004DE0F5F0A3E045F0600D9005ECE0FEA3E0FF8E828F8322C2019005E9E4F0A3F01C
:201FC100A3F09005ECF0A3F09005EEF0A3F090000022AF82AE83ADF0FC900552EFF0EEA35F
:201FE100F0EDA3F0ECA3F0439380759701900552E0FCA3E0FDA3E0FEA3E0FF90056CECF06B
:20200100EDA3F0EEA3F0EFA3F090870075F093740312234FAC82AD83AEF0FF900563740AC1
:20202100F0E4A3F0A3F0A3F08C828D838EF0EFC007C006C005C00412220FA882D004D0055B
:20204100D006D00790053FE8F090056C740AF0E4A3F0A3F0A3F08C828D838EF0EFC00012BD
:20206100234FAC82AD83AEF0FFD00090053BECF0EDA3F0EEA3F0EFA3F0B80500401390054E
:202081003B74012CF0E43DA3F0E43EA3F0E43FA3F090053BE0FCA3E0FDA3E0A3E08D918C78
:2020A1009A53937F43A2104393035393F343913043948890053FE592F0E5977597FFD2EC96
:2020C100021BB8E582900556F0E59530E5FB900556E0F59A22AFF0AE83E582900557F0EEE1
:2020E100A3F0EFA3F0900557E0FDA3E0FEA3E0FF8D828E838FF01230C2FC60230DBD000111
:202101000E900557EDF0EEA3F0EFA3F08C82C007C006C0051220C4D005D006D00780D1902B
:202121000557EDF0EEA3F0EFA3F022121C08AC82AD83AEF0FF90055AECF0EDA3F0EEA3F043
:20214100EFA3F0E59520E03D121C08AC82AD83AEF0FF90055AE0F8A3E0F9A3E0FAA3E0FBD6
:20216100ECC398FCED99FDEE9AFEEF9BFFC374E89C74039DE49EE49F50C990055AE4F0A336
:20218100F0A3F0A3F0859A8222AFF0AE83E582900560F0EEA3F0EFA3F090055EE4F09005EA
:2021A10060E0FDA3E0FEA3E0FF90055FE0FC90055EE0FBC39C5053EB2DF9E43EFA8F03C0BF
:2021C10007C006C005C004C003C002C00112212CA882D001D002D003D004D005D006D0070D
:2021E10089828A838BF0E812246B90055AE0F5F0A3E042F0A3E042F0A3E045F07003F58202
:0E2201002290055EE02401F080A47582012287
:2052F700000000000000000000000000000000000000000000000000000000000000000097
:0C5317000000000000000000000000008A
:20220F00AF82AE83ADF0FC900567EFF0EEA3F0EDA3F0ECA3F090056BE4F0900567E0FCA30A
:20222F00E0FDA3E0FEA3E0FF7B00900563E0F55FA3E0F560A3E0F561A3E0F562235401FA0B
:20224F007074C003E55F255FF8E56033F9E56133FAE56233FB900563E8F0E9A3F0EAA3F0E6
:20226F00EBA3F0900563E0F55FA3E0F560A3E0F561A3E0F562C3EC955FED9560EE9561EFC2
:20228F009562D0035027E562C313F562E56113F561E56013F560E55F13F55F900563F0E5A6
:2022AF0060A3F0E561A3F0E562A3F080090B90056BEBF002223990056BE0FF900567E0FBE7
:2022CF00A3E0FCA3E0FDA3E0FE900563E0F55FA3E0F560A3E0F561A3E0F562C3EB955FEC2A
:2022EF009560ED9561EE95624017900567EBC3955FF0EC9560A3F0ED9561A3F0EE9562A3BB
:20230F00F0900563E0FBA3E0FCA3E0FDA3E0C313FEED13FDEC13FCEB13900563F0ECA3F038
:20232F00EDA3F0EEA3F08F061FEE708F900567E0FCA3E0FDA3E0FEA3E08C828D838EF022D2
:20234F00AF82AE83ADF0FC900570EFF0EEA3F0EDA3F0ECA3F0900574E4F0A3F0A3F0A3F079
:20236F0090056CE0FCA3E0FDA3E0FEA3E0FF7B20C003900570E0F8A3E0F9A3E0FAA3E0FB3C
:20238F00900578235401F0E828F8E933F9EA33FAEB33FB900570E8F0E9A3F0EAA3F0EBA308
:2023AF00F0900574E0F8A3E0F9A3E0FAA3E0FBE828F8E933F9EA33FAEB33FB900574E8F098
:2023CF00E9A3F0EAA3F0EBA3F0D003900578E06008900574E043E001F0900574E0F55FA372
:2023EF00E0F560A3E0F561A3E0F562C3E55F9CE5609DE5619EE5629F401F900574E55FC328
:20240F009CF0E5609DA3F0E5619EA3F0E5629FA3F0900570E043E001F01BEB600302237FB6
:14242F00900570E0FCA3E0FDA3E0FEA3E08C828D838EF02276
:06008E00E478FFF6D8FD46
:20244300AC82AD8390057AE0FEA3E0FFBE000360121F0F900579E08C828D8312246BA3DE1D
:08246300FADFF88C828D832260
:20006C00792CE94400601B7A019052F778C475A005E493F2A308B8000205A0D9F4DAF275FC
:02008C00A0FFD3
:1B246B0020F71130F6138883A88220F509F6A8837583002280FEF280F5F02270
:20248600AA83AB828BF090057DE0A4F8A9F08AF0E0A429F98BF0A3E0A429F5838882222289
:2024A600AF83E582900581F0EFA3F0900581E0FEA3E0FF30E709C3E49EFCE49FFD80048E8C
:2024C600048F0590057FE0FEA3E0FF33E433FB6009C3E49EF9E49FFA80048E018F02900548
:2024E60083E9F0EAA3F08C828D83C003122518AE82AF83D003900581E0A3E033E4336B600A
:122506000CC3E49EFCE49FFD8C828D83228E828F832272
:200094007800E84400600A790175A000E4F309D8FC78C3E84405600C7906900001E4F0A39C
:0400B400D8FCD9FAA1
:20251800AF83E582900585F0EFA3F0900587E4F0A3F0900583E0FEA3E0FF7D10900585E0FC
:20253800FBA3E0FC900589235401F0EB2BFBEC33FC900585EBF0ECA3F0900587E0FBA3E069
:20255800FCEB2BFBEC33FC900587EBF0ECA3F0900589E06008900587E043E001F090058733
:20257800E0FBA3E0FCC3EB9EEC9F4013900587EBC39EF0EC9FA3F0900585E043E001F0DD5E
:0D2598009B900585E0FEA3E08E82F5832276
:2025A500C016858116C082058105810581E51624FBF8A9160909E6F70809E6F70809E6F7B4
:2025C500A816080886820886830886F01230C2FAA31230C2FBA31230C2FF74012AFCE43B91
:2025E500FD8F06A816080886820886830886F0EC12246BA3ED12246BA3EE12246B8A828B58
:20260500838FF0A81608E612246B851681D01622AFF0AE83E58290058EF0EEA3F0EFA3F0F5
:2026250090058AE0FDA3E0FEA3E0FF90058DE0FC9005A2748EF07405A3F0E4A3F09005A5B2
:20264500EDF0EEA3F0EFA3F09005A8ECF09025A51227A9AE82AF8390058EE0FBA3E0FCA3BE
:20266500E0FD8B828C838DF0E412246B8E828F8322C016E581F51624F8FFE51624FBFE7D1F
:20268500007C409005A2EEF0EDA3F0ECA3F0E51624F8F89005A5E6F008E6A3F008E6A3F044
:2026A5009005A8EFF09025A51227A9AE82AF83E51624FBF886030886040886058B828C837F
:0D26C5008DF0E412246B8E828F83D01622DC
:2026D200E58290059EF0E0FF900594E0C0E0A3E0C0E0A3E0C0E01226ED800D900592E0C017
:2026F200E0A3E0C0E08F822215811581158190059CE02401F0A3E03400F022E58290059F46
:20271200F0E02430FF24C6500D74072FFF900591E060034307208F820226D2E5829005A01A
:20273200F0E0FFC4540FF582C00712270DD00753070F8F8202270DE5829005A1F0900597CD
:20275200E0FCA3E0FDA3E0FEA3E0FF90059BE0FB755F209005A1E0F98B00E828F8EF235401
:202772000148FBEC2CFCED33FDEE33FEEF33FFC3EB994007EBC399FB430401E55F14FA8A9E
:202792005F70D5900597ECF0EDA3F0EEA3F0EFA3F090059BEBF022AF83E5829005A9F0EF15
:2027B200A3F09005A9E0FEA3E0FF900592EEF0EFA3F09005A2E0FDA3E0FEA3E0FF9005940F
:2027D200EDF0EEA3F0EFA3F090059CE4F0A3F09005A5E0FDA3E0FEA3E0FF8D828E838FF0B6
:2027F2001230C2FC9005A574012DF0E43EA3F0EFA3F0EC700302309EBC2502800302309667
:202812009005ABE4F09005ACF09005ADF09005AEF09005AFF09005B0F09005B1F09005B216
:20283200F09005B4F09005B5F0A3F09005B714F0A3F09005A5E0FDA3E0FEA3E0FF8D828EF6
:20285200838FF01230C2FBA3AD82AE839005A5EDF0EEA3F0EFA3F09005BBEBF0BB25088BAA
:20287200821226D20227E1BB30005003022942EB24C650030229429005B7E0F555A3E0F582
:202892005674FFB55563B55660C005C006C0079005B5E0FAA3E0FF90057DEAF0EFA3F0908F
:2028B200000AC005C003122486AE82AF83D003D0058B027D00EA2EFEED3FFFEE24D0FEEF94
:2028D20034FFFF9005B5EEF0EFA3F0D007D006D0059005B5E0F5F0A3E045F0600302284FE5
:2028F2009005AC7401F002284FC005C006C00790057DE555F0E556A3F090000AC006C00526
:20291200C003122486AA82AF83D003D005D0067E00EB2AFAEE3FFFEA24D0FAEF34FFFF9008
:2029320005B7EAF0EFA3F0D007D006D00502284F9005BBE0FBBB2E2FC005C006C007900548
:20295200B7E0FAA3E0FFBAFF05BFFF028009D007D006D00502284FD007D006D0059005B782
:20297200E4F0A3F002284FBB61004014EB2485400F9005BB74DF5BF09005917401F0800514
:20299200900591E4F09005BBE0FBBB20028075BB2B028067BB2D028059BB4202806FBB43B0
:2029B20002807CBB4403022C39BB4603022C5FBB480302284FBB4903022C39BB4A030228EE
:2029D2004FBB4C028050BB4F03022C47BB5003022BA7BB53028077BB540302284FBB5503B4
:2029F200022C4FBB5803022C57BB5A0302284F022C679005AB7401F002284F9005AD7401B2
:202A1200F002284F9005AE7401F002284F9005B07401F002284F9005B17401F002284F9043
:202A320005B0E0600E9005A8E014F9F09005BBE7F0800F9005A8E024FEFFF08F019005BBA3
:202A5200E7F09005BBE0F5821226D2022C769005A8E024FDFFF08F018705098706098707C2
:202A72001919900597EDF0EEA3F0EFA3F08D828E838FF01230AA8582558583569005B7E095
:202A9200FAA3E0FDBAFF0DBDFF0A9005B7E555F0E556A3F09005ABE0704B9005B5E0FAA338
:202AB200E0FDC3E5559AE5569D503A9005B5EAC39555F0ED9556A3F09005B5E0FAA3E0FD4E
:202AD2008A068D071ABAFF011DEE4F6010758220C005C0021226D2D002D00580E39005B526
:202AF200EAF0EDA3F09005B7E0F558A3E0F559900597E0FAA3E0FDA3E0FF8A828D838FF07D
:202B12001230C2F557603CC3E4955874808559F063F08095F0502C155874FFB55802155930
:202B32008557821226D2900597E0FAA3E0FDA3E0FF0ABA00010D900597EAF0EDA3F0EFA329
:202B5200F080AC9005ABE07003022C769005B5E0FEA3E0FFC3E5559EE5569F4003022C760A
:202B72009005B5EEC39555F0EF9556A3F09005B5E0FEA3E0FF8E028F051EBEFF011FEA4D01
:202B92007003022C6E758220C007C0061226D2D006D00780E09005A8E024FDFDF08D018719
:202BB2005A09875B09875C1919900597E55AF0E55BA3F0E55CA3F0900599E0FDBD80004016
:202BD200089005BB7443F08020BD600040089005BB7450F08013BD400040089005BB7449F6
:202BF200F080069005BB7458F09005BBE0FDF582C0051226D275823A1226D2758230122634
:202C1200D27582781226D2D005BD4902800EBD50028009900598E0F58212272D900597E05E
:202C3200F58212272D803D9005AF7401F09005B4740AF0802F9005B47408F080279005B434
:202C5200740AF0801F9005B47410F080179005B27401F0800F8B821226D280089005B5EEEF
:202C7200F0EFA3F09005B2E060719005A8E024FCFFF08F01870309870509870609870719B7
:202C92001919900597EBF0EDA3F0EEA3F0EFA3F090059774ECF07452A3F07480A3F0900575
:202CB20097E0F55AA3E0F55BA3E0F55C7401255AFAE4355BFBAF5C900597EAF0EBA3F0EFBA
:202CD200A3F0855A82855B83855CF01230C2FF70030227E18F821226D280C39005B4E07043
:202CF200030227E19005B0E060479005A8E014F9F087077E007D007B00900597EFF0EEA32F
:202D1200F0EDA3F0EBA3F09005AFE06003022DB9900597E0FBA3E0A3E0A3E07D007E007F3A
:202D320000900597EBF0EDA3F0EEA3F0EFA3F080769005B1E060289005A8E024FCFFF08F98
:202D5200018703098705098706098707191919900597EBF0EDA3F0EEA3F0EFA3F0804890E7
:202D720005A8E024FEFFF08F01870609870719EF3395E0FDFB900597EEF0EFA3F0EDA3F03B
:202D9200EBA3F09005AFE0701E900597E0FBA3E0FDA3E0A3E07E007F00900597EBF0EDA3D0
:202DB200F0EEA3F0EFA3F09005AFE06041900597E0FBA3E0FDA3E0FEA3E0FF30E72B9005E8
:202DD20097E0FBA3E0FDA3E0FEA3E0FFC3E49BFBE49DFDE49EFEE49FFF900597EBF0EDA398
:202DF200F0EEA3F0EFA3F080059005AFE4F09005B37401F09005B4E0F558755DC1755E05A3
:202E1200E4F555F55690059BE4F08558821227499005B3E0702690059BE0C4F55A855D82FD
:202E3200855E83E0FFE55A4207855D82855E83EFF0155D74FFB55D02155E800C90059BE002
:202E5200FF855D82855E83F00555E4B5550205569005B3E0B40100E433F0900597E0FAA375
:202E7200E0FBA3E0FEA3E0FFEA4B4E4F70979005C2E55DF0E55EA3F09005B9E555F0E55677
:202E9200A3F09005B5E0F5F0A3E045F070099005B57401F0E4A3F09005ACE0FFE0704790E0
:202EB20005ABE0704185555D85565E9005B5E0FAA3E0FBC007AF5D0F8F067F00C3EE9AEF7D
:202ED2009BD0075019758220C007C003C0021226D2D002D003D0071ABAFF011B80D5900543
:202EF200B5EAF0EBA3F09005AFE0602075822DC0071226D2D0079005B5E024FFFDA3E03442
:202F1200FFFE9005B5EDF0EEA3F080569005B9E0F5F0A3E045F0604A9005ADE06020758216
:202F32002BC0071226D2D0079005B5E024FFFDA3E034FFFE9005B5EDF0EEA3F080249005CD
:202F5200AEE0601E758220C0071226D2D0079005B5E024FFFDA3E034FFFE9005B5EDF0EE81
:202F7200A3F09005ABE070489005B9E0F55DA3E0F55E9005B5E0FAA3E0FBC0078A068B07F3
:202F92001ABAFF011BC3E55D9EE55E9FD0075053EF60067D307E0080047D207E008D82C043
:202FB20007C003C0021226D2D002D003D00780CA9005B5E0FEA3E0FF9005B9E0F55DA3E0F6
:202FD200F55EC3E55D9EE55E9F500F9005B5EEC3955DF0EF955EA3F080119005B5E4F0A304
:202FF200F080089005B5EAF0EBA3F09005C2E0FEA3E0FF9005B9E0F55DA3E0F55EAA5DADE4
:203012005E155D74FFB55D02155EEA4D60459005B3E0B40100E433F09005B3E070140EBE9C
:2030320000010F8E828F83E0C4540FFD90059BF0800E8E828F83E0FD53050F90059BEDF027
:2030520090059BE0F582C007C00612270DD006D00780AA9005ABE070030227E19005B5E066
:20307200FEA3E0FF8E038F051EBEFF011FEB4D70030227E1758220C007C0061226D2D00665
:18309200D00780E08C821226D20227E190059CE0FEA3E08E82F5832291
:0B52EC003C4E4F20464C4F41543E000A
:1830AA00AA82AB831230C26003A380F8C3E5829AF582E5839BF583225A
:20003100E58124FCC3C8C0E0C082E608467006E5824583601218E58296F58208E58396429D
:1B0051008208E5F0964582D082C8D0E0C82275816B1230DEE582600302002EA9
:1C30C20020F71430F6148883A88220F507E6A88375830022E280F7E49322E0221D
:0430DE0075820022D5
:00000001FF
