:0400000002005F3269
:01000B0032C2
:0100130032BA
:01001B0032B2
:03002300021A417D
:03002B000218E7D1
:0300BC0002002E11
:03002E000200BF0E
:2000BF0012181190000A12183F90840075F003E4121935D2AF90003212183F12019B1208AF
:2000DF00CA120A289003E812183F7582001209E2900BB9E4F0A3F0900BB9E0FEA3E0FF901C
:2000FF000D1EEEF0EFA3F0900BB8C007C006122177AC82AD83E4FBFA74802BFBE43AFA90D3
:20011F000BC77401F07400A3F0E4A3F0900BCA74B8F0740BA3F08C828D838BF0EA12027071
:20013F00900C777402F0E4A3F0900C797464F0E4A3F0900C7B743CF0E4A3F0900C7D7401A0
:20015F00F07400A3F0E4A3F090004C120AABD006D0070EBE00010F900BB9EEF0EFA3F090A2
:1C017F000BB9E0FEA3E0FFBE5605BF050280030200F6900BB9E4F0A3F00200F633
:20019B0053FC7775FA6043BAB053BABF75FB0322C29475F90530FBFD75F9FF30FBFDAFF973
:2001BB00900BBBEFF0D2948F82221201ABE58230E0051201AB80F322E582900BC2F0C294BF
:2001DB0075F90130FBFD900BC2E0F5F930FBFDD29422C29475F90630FBFDD294221201AB5A
:2001FB00E58220E1030201ED221201F8C29475F96030FBFDD2940201C5AF82AE83ADF0FCE7
:20021B00900BC3EFF0EEA3F0EDA3F0ECA3F0900BBBE4F0C29475F90330FBFD900BC3E0A30C
:20023B00E0FDA3E0FEA3E08E028AF930FBFD8DF930FBFD900BC3E0FCA3E0A3E0A3E08CF991
:20025B0030FBFD75F9FF30FBFDAFF9900BBBEFF0D2948F8222AF82AE83ADF0FC900BCCEFFF
:20027B00F0EEA3F0EDA3F0ECA3F0900BBCE4F0A3F0900BC7E0FDA3E0FEA3E0FF900BCAE0AE
:20029B00FBA3E0FC900BCCE0F510A3E0F511A3E0F512A3E0F513900BBCE0F9A3E0FAC3E986
:2002BB009BEA9C5079C003C004E92DF9EA3EF88F028510828511838512F0E513C007C006B6
:2002DB00C005C003C002C001C000120214AC82D000D001D002D003D005D006D00789828887
:2002FB00838AF0EC12215C0510E4B5100C0511B511070512B512020513900BCCE510F0E595
:20031B0011A3F0E512A3F0E513A3F0900BBCE02401F0A3E03400F0D004D0030202B1900B1F
:20033B00CCE510F0E511A3F0E512A3F0E513A3F022AF83E582900BD3F0EFA3F01201EDC2F6
:20035B009475F90230FBFD900BD3E0FEA3E0FF8E048F057C008DF930FBFD8EF930FBFD7514
:20037B00F90030FBFD900BBEE4F0A3F0900BD0E0FDA3E0FEA3E0FF900BBEE0FBA3E0FCEB98
:20039B002DFBEC3EFC8F028B828C838AF0122296F5F930FBFD900BBEE02401F0A3E03400E8
:2003BB00F0900BBEE0A3E0C3940140CBD2940201C5AF83E582900BDAF0EFA3F0900BC0E426
:2003DB00F0A3F0900BD5E0FDA3E0FEA3E0FF900BD8E0FBA3E0FC900BDAE0F9A3E0FAC005D2
:2003FB00C006C0078B008C078F007F00900BC0E0FDA3E0FE8D148E15C3E51498E5159FD06F
:20041B0007D006D0055058C003C004AC147800900BD0E82DF0EC3EA3F0EFA3F089828A83E1
:20043B00C007C006C005C004C003C002C00112034CD001D002D003D004D005D006D007090F
:20045B00B900010A900BDAE9F0EAA3F0900BC0E02401F0A3E03400F0D004D0030203F990C6
:08047B000BDAE9F0EAA3F0221C
:20048300E582900BDCF0E0FF600FBF01028011BF02028013BFFF1E80159022B675F08022B4
:2004A3009025B675F08022902BB675F08022903E7675F080229022B675F08022AFF0AE83C5
:2004C300E582900BE3F0EEA3F0EFA3F0900BE3E0FDA3E0FEA3E0FF74B6C0E07422C0E0746F
:2004E30080C0E08D828E838FF01200311581158115816002802C900BDDE0FAA3E0FBA3E0D4
:20050300FC8A828B838CF0740812215C900BE0E0FAA3E0FBA3E0FC8A828B838CF0740802D5
:20052300215C74B6C0E07425C0E07480C0E08D828E838FF01200311581158115816002801E
:200543002C900BDDE0FAA3E0FBA3E0FC8A828B838CF0740812215C900BE0E0FAA3E0FBA306
:20056300E0FC8A828B838CF0741002215C74B6C0E0742BC0E07480C0E08D828E838FF012B5
:2005830000311581158115816002802C900BDDE0FAA3E0FBA3E0FC8A828B838CF0741412D8
:2005A300215C900BE0E0FAA3E0FBA3E0FC8A828B838CF0742802215C7476C0E0743EC0E0DC
:2005C3007480C0E08D828E838FF0120031158115811581600122900BDDE0FDA3E0FEA3E004
:2005E300FF8D828E838FF0744012215C900BE0E0FDA3E0FEA3E0FF8D828E838FF074300277
:02060300215C78
:2022B60000000000000000000000065F5F0600000003030003030000147F7F147F7F1400FA
:2022D600242E6B6B3A120000466630180C666200307A4F5D377A480004070300000000004F
:2022F600001C3E63410000000041633E1C000000082A3E1C1C3E2A0808083E3E0808000018
:202316000080E06000000000080808080808000000006060000000006030180C0603010039
:202336003E7F71594D7F3E0040427F7F40400000627359496F660000226349497F360000DE
:20235600181C16537F7F5000276745457D3900003C7E4B4979300000030371790F070000B1
:20237600367F49497F360000064F49693F1E000000006666000000000080E666000000004F
:20239600081C3663410000002424242424240000004163361C080000020351590F0600008F
:2023B6003E7F415D5D1F1E007C7E13137E7C0000417F7F49497F36001C3E634141632200AE
:2023D600417F7F41633E1C00417F7F495D416300417F7F491D0103001C3E63415173720044
:2023F6007F7F08087F7F000000417F7F41000000307040417F3F0100417F7F081C7763001E
:20241600417F7F41406070007F7F0E1C0E7F7F007F7F060C187F7F001C3E6341633E1C0001
:20243600417F7F49090F06001E3F21717F5E0000417F7F09197F6600266F4D5973320000EE
:2024560003417F7F410300007F7F40407F7F00001F3F60603F1F00007F7F3018307F7F0074
:2024760043673C183C674300074F78784F070000476371594D677300007F7F4141000000AB
:202496000103060C183060000041417F7F000000080C0603060C08008080808080808080B1
:2024B6000000030704000000207454543C784000417F3F4848783000387C44446C280000C1
:2024D600307848493F7F4000387C54545C180000487E7F490302000098BCA4A4F87C040038
:2024F600417F7F08047C780000447D7D4000000060E08080FD7D0000417F7F10386C440018
:2025160000417F7F400000007C7C18381C7C78007C7C04047C780000387C44447C380000EA
:2025360084FCF8A4243C1800183C24A4F8FC8400447C784C041C1800485C545474240000BD
:2025560000043E7F442400003C7C40403C7C40001C3C60603C1C00003C7C7038707C3C0014
:20257600446C3810386C44009CBCA0A0FC7C00004C64745C4C64000008083E7741410000DE
:2025960000000077770000004141773E0808000002030103020301000000000000000000E1
:2025B60000000000000000000000000000000000000000F0000000000000000B000000000A
:2025D6000000F000F000000000000000000000000040F040C0700000000603020F02000049
:2025F600006090FC101000000008083F09060000609090F08040000000020106090906000A
:2026160000E01010102000000609090A0C060800000000F000000000000000000000000048
:202636000000F0080808000000000F101010000000080808F0000000001010100F000000F6
:20265600008080E0808000000000030003000000008080F080800000000000070000000087
:2026760000000000000000000000003800000000008080808080000000000000000000008C
:202696000000000000000000000000080000000000000000E018000000300C0300000000E5
:2026B60000E0101010E000000007080908070000002010F0000000000008080F080800009E
:2026D6000010101010E0000000080C0A0908000000109090D020000000080808080700004E
:2026F60000E0000000E00000000302020207000000F09090909000000004080808070000A1
:2027160000C0A09090900000000708080807000000301010907000000000000C030000000E
:20273600006090909070000000070808080F000000E0101010E000000009090905030000C2
:202756000000004000000000000000080000000000000040000000000000003800000000A3
:202776000080404020200000000101020404000000404040404000000002020202020000AD
:202796000020204040800000000404020101000000201010906000000000000B000000009C
:2027B60000E0905050E00000001F2728280F00000000E010E000000008070202020708007A
:2027D60000F0909090600000000F0808080D020000E0101010100000000708080808000066
:2027F60000F0101010608000000F08080806010000F0909090100000000F080808080000B6
:2028160000F0101010100000000F010101010000806010101010000001060808090F000010
:2028360000F0808080F00000000F0000000F0000001010F0101000000008080F08080000A5
:202856000000001010F00000000408080807000000F0000080600000000F0101010608003F
:2028760000F0000000000000000F08080808000000F0608060F00000000F0000000F0000E5
:2028960000F0608000F00000000F0001060F000000E0101010608000000708080806010027
:2028B60000F0101010F00000000F01010100000000E010101060800000070838484601001A
:2028D60000F0101010E00000000F0101030C000000609090101000000008080809060000FB
:2028F600001010F0101000000000000F0000000000F0000000F0000000070808080700007D
:2029160010E0000000E010000000070807000000708000C000807000000F0F000F0F0000CF
:202936000030408040300000000C0201020C00001020C000C02010000000000F0000000015
:202956000010109050300000000C0A09080800000000FC040404000000001F1010100000AB
:202976000018608000000000000000030C30000000040404FC000000001010101F000000B3
:20299600008060106080000000000000000000000000000000000000001010101010000001
:2029B6000000106000000000000000000000000000404040C0000000000E0A0A060F0800D2
:2029D60000F8404040800000000F08080807000000804040404000000007080808080000D4
:2029F6000080404040F8000000070808080F0000008040404080000000070A0A0A0B00006B
:202A16008080C0B08888000000000700000000000080404040C0000000474848683F00009B
:202A360000F8404040800000000F0000000F0000004040D0100000000008080F080800009B
:202A560000004040D0000000004040403F00000000F8000000C00000000F0202030C000037
:202A7600000808F0000000000000000F08080000008040C040C00000000F000F000F000074
:202A960000C0404040800000000F0000000F0000008040404080000000070808080700001C
:202AB60000C0404040800000007F0808080F00000080404040C0000000070808087F0000BC
:202AD6000040C0404040800000080F08080000000080404040400000000909090A0E0000C6
:202AF6004040F04040400000000007080808000000C0000000C0000000070808080F0800BB
:202B160000C0000000C000000000070806010000408000C000804000000F0F000F0F00008D
:202B36000040800080400000000804030408000000C0000000C000000041261806010000DE
:202B560000404040C040000000080E0B0808000000008078080800000000001F1010000027
:202B7600000000FC000000000000003F0000000000080878800000000010101F00000000BD
:202B960000808000000000000001000102030000F808F800000000000F080F0000000000FA
:202BB6000000000000000000000000000000000000000000000000000000000000000000FF
:202BD60000000000000000000000022222222200000000007FFFFFFFFF7000000004FFFF68
:202BF600FFFFFFF7000000617FFFFFFFFF91700007FD12222222220AFA000FFF50000000EE
:202C1600002FFF200FFF50000000002FFF200FFF50000000002FFF200FFF50000000002F6B
:202C3600FF200FFF50000000002FFF200FFF50000000002FFF200FFF50000000002FFF205B
:202C56000FFF50000000002FFF200FFC200000000006FF200F5000000000000019200100C9
:202C76000000000000000000050000000000000002100FD50000000000029F200FFF500024
:202C96000000002FFF200FFF50000000002FFF200FFF50000000002FFF200FFF500000001A
:202CB600002FFF200FFF50000000002FFF200FFF50000000002FFF200FFF50000000002FCB
:202CD600FF200FFF50000000002FFF200DFF40000000001FFF1001D7055555555504F40070
:202CF6000010AFFFFFFFFFD110000003FFFFFFFFFFF6000000004FFFFFFFFF4000000000A3
:202D160000000000000000000000000000000000000000000000000000000000000000009D
:202D360000000000000000000000000000000000000000000000000000000000000000007D
:202D560000000000000000000000000000000000000000000000000000000000000000005D
:202D7600000000000000000000000A0000000000000000009F000000000000000007FF008E
:202D9600000000000000004FFF00000000000000005FFF00000000000000005FFF00000013
:202DB60000000000005FFF00000000000000005FFF00000000000000005FFF0000000000E3
:202DD6000000005FFF00000000000000005FFF00000000000000005FFF00000000000000C3
:202DF600002CFF0000000000000000005F0000000000000000000100000000000000000032
:202E160004000000000000000004CF00000000000000005FFF00000000000000005FFF0009
:202E3600000000000000005FFF00000000000000005FFF00000000000000005FFF00000062
:202E560000000000005FFF00000000000000005FFF00000000000000005FFF000000000042
:202E76000000005FFF00000000000000003FFF000000000000000004FF000000000000009D
:202E960000006F0000000000000000000700000000000000000000000000000000000000A6
:202EB6000000000000000000000000000000000000000000000000000000000000000000FC
:202ED6000000000000000000000000000000000000000000000000000000000000000000DC
:202EF60000000000000000000000022222222200000000007FFFFFFFFF700000000AFFFF3F
:202F1600FFFFFFF7000001DFFFFFFFFFFF917000012222222222220AFA00000000000000FA
:202F3600002FFF20000000000000002FFF20000000000000002FFF20000000000000002F62
:202F5600FF20000000000000002FFF20000000000000002FFF20000000000000002FFF2052
:202F7600000000000000002FFF200000022222222219FF200002CFFFFFFFFFD44D20008F8E
:202F9600FFFFFFFFFFFFA1000404CFFFFFFFFFD500000FC402222222220000000FFF50001D
:202FB6000000000000000FFF50000000000000000FFF50000000000000000FFF50000000E1
:202FD600000000000FFF50000000000000000FFF50000000000000000FFF500000000000C1
:202FF60000000FFF50000000000000000DFF400000000000000001D7055555555550000090
:203016000010AFFFFFFFFFFA00000003FFFFFFFFFFFFA00000004FFFFFFFFFFFFA00000004
:2030360000000000000000000000000000000000000000000000000000000000000000007A
:2030560000000000000000000000000000000000000000000000000000000000000000005A
:2030760000000000000000000000000000000000000000000000000001222222222221006E
:20309600000001DFFFFFFFFFFD100000001DFFFFFFFFFFF100000001DFFFFFFFFD444000CA
:2030B600000012222222214FF400000000000000009FF900000000000000009FF9000000EE
:2030D60000000000009FF900000000000000009FF900000000000000009FF9000000000012
:2030F6000000009FF900000000000000009FF900000000000000009FF9000000122222227A
:20311600214DF9000006FFFFFFFFFF61890003DFFFFFFFFFFFFD31000027FFFFFFFFFFC456
:2031360013000000122222222105D900000000000000009FF900000000000000009FF900BF
:20315600000000000000009FF900000000000000009FF900000000000000009FF900000091
:2031760000000000009FF900000000000000009FF900000000000000009FF9000000000071
:203196000000008FF800000035555555530AA0000004FFFFFFFFFF700000004FFFFFFFFFA7
:2031B600FFC1000004FFFFFFFFFFFA00000000000000000000000000000000000000000040
:2031D6000000000000000000000000000000000000000000000000000000000000000000D9
:2031F6000000000000000000000000000000000000000000000000000000000000000000B9
:20321600000000000000000000000000000000000000070000000000000007200F700000EB
:20323600000000005F200FF7000000000004FF200FFF40000000001FFF200FFF50000000E6
:20325600002FFF200FFF50000000002FFF200FFF50000000002FFF200FFF50000000002F25
:20327600FF200FFF50000000002FFF200FFF50000000002FFF200FFF50000000002FFF2015
:203296000FFF50000000002FFF200FFC222222222219FF200F53CFFFFFFFFFC24D20018F93
:2032B600FFFFFFFFFFFF81000004CFFFFFFFFFF7221000000222222222029F20000000003A
:2032D6000000002FFF20000000000000002FFF20000000000000002FFF20000000000000EE
:2032F600002FFF20000000000000002FFF20000000000000002FFF20000000000000002F9F
:20331600FF20000000000000002FFF20000000000000002FFF20000000000000001DFF20A0
:203336000000000000000001DF2000000000000000003F20000000000000000004200000F4
:20335600000000000000000000000000000000000000000000000000000000000000000057
:20337600000000000000000000000000000000000000000000000000000000000000000037
:2033960000000000000000000000000000000000000000000000000000000222222222226B
:2033B600200000007FFFFFFFFFFF70000004FFFFFFFFFFF7000000617FFFFFFFFF700000AB
:2033D60007FD12222222220000000FFF50000000000000000FFF50000000000000000FFF6F
:2033F60050000000000000000FFF50000000000000000FFF50000000000000000FFF50004D
:203416000000000000000FFF50000000000000000FFF50000000000000000FFC2222222247
:20343600220000000F53CFFFFFFFFFD40000018FFFFFFFFFFFFFA0000004CFFFFFFFFFD585
:20345600021000000222222222029F20000000000000002FFF20000000000000002FFF205D
:20347600000000000000002FFF20000000000000002FFF20000000000000002FFF2000004C
:2034960000000000002FFF20000000000000002FFF20000000000000002FFF20000000002C
:2034B6000000001FFF100000455555555504F4000007FFFFFFFFFFD11000007FFFFFFFFFD9
:2034D600FFF6000007FFFFFFFFFFFF400000000000000000000000000000000000000000A0
:2034F6000000000000000000000000000000000000000000000000000000000000000000B6
:20351600000000000000000000000000000000000000000000000000000000000000000095
:2035360000000000000000000000022222222222200000007FFFFFFFFFFF70000004FFFFBD
:20355600FFFFFFF7000000617FFFFFFFFF70000007FD12222222220000000FFF5000000019
:20357600000000000FFF50000000000000000FFF50000000000000000FFF5000000000001B
:2035960000000FFF50000000000000000FFF50000000000000000FFF5000000000000000FB
:2035B6000FFF50000000000000000FFC22222222220000000F53CFFFFFFFFFC20000018F63
:2035D600FFFFFFFFFFFF80000404CFFFFFFFFFF722100FC40222222222029F200FFF5000E3
:2035F6000000002FFF200FFF50000000002FFF200FFF50000000002FFF200FFF50000000B1
:20361600002FFF200FFF50000000002FFF200FFF50000000002FFF200FFF50000000002F61
:20363600FF200FFF50000000002FFF200FFF50000000001FFF1004FA155555555504F400BE
:203656000031AFFFFFFFFFD110000003FFFFFFFFFFF6000000004FFFFFFFFF400000000018
:20367600000000000000000000000000000000000000000000000000000000000000000034
:20369600000000000000000000000000000000000000000000000000000000000000000014
:2036B6000000000000000000000000000000000000000000000000000000000000000000F4
:2036D600000001DFFFFFFFFFFFFFD200001DFFFFFFFFFFFD2A000001DFFFFFFFFFD2AF008C
:2036F600000015555555552AFF00000000000000005FFF00000000000000005FFF00000066
:2037160000000000005FFF00000000000000005FFF00000000000000005FFF000000000079
:203736000000005FFF00000000000000005FFF00000000000000005FFF0000000000000059
:20375600004FFF0000000000000000019F0000000000000000000400000000000000000061
:20377600010000000000000000017F00000000000000004FFF00000000000000005FFF0006
:20379600000000000000005FFF00000000000000005FFF00000000000000005FFF000000F9
:2037B60000000000005FFF00000000000000005FFF00000000000000005FFF0000000000D9
:2037D6000000005FFF00000000000000004FFF000000000000000007FF0000000000000021
:2037F60000009F0000000000000000000A000000000000000000000000000000000000000A
:20381600000000000000000000000000000000000000000000000000000000000000000092
:20383600000000000000000000000000000000000000000000000000000000000000000072
:2038560000000000000000000000000000000000000000004FFFFFFFFF4000000003FFFFC6
:20387600FFFFFFF600000031AFFFFFFFFFD1400004FA155555555507F7000FFF500000008F
:20389600002FFF200FFF50000000002FFF200FFF50000000002FFF200FFF50000000002FDF
:2038B600FF200FFF50000000002FFF200FFF50000000002FFF200FFF50000000002FFF20CF
:2038D6000FFF50000000002FFF200FFF40000000001AFF200F927FFFFFFFFF814D20045D34
:2038F600FFFFFFFFFFFD50100228FFFFFFFFFFFC41000F921555555555205D200FFF400003
:203916000000001DFF200FFF50000000002FFF200FFF50000000002FFF200FFF500000009F
:20393600002FFF200FFF50000000002FFF200FFF50000000002FFF200FFF50000000002F3E
:20395600FF200FFF50000000002FFF200FFF50000000002FFF2004FA022222222207F70054
:2039760000307FFFFFFFFF9040000004FFFFFFFFFFF7000000007FFFFFFFFF7000000000D5
:20399600022222222200000000000000000000000000000000000000000000000000000087
:2039B6000000000000000000000000000000000000000000000000000000000000000000F1
:2039D6000000000000000000000000000000000000000000000000000000000000000000D1
:2039F600000000004FFFFFFFFF4000000003FFFFFFFFFFF600000031AFFFFFFFFFD1400045
:203A160004FA155555555507F7000FFF50000000002FFF200FFF50000000002FFF200FFFC5
:203A360050000000002FFF200FFF50000000002FFF200FFF50000000002FFF200FFF50001C
:203A56000000002FFF200FFF50000000002FFF200FFF50000000002FFF200FFF500000004C
:203A7600002FFF200FC47FFFFFFFFF839F20045DFFFFFFFFFFFD42100028FFFFFFFFFFFC88
:203A9600510000001555555555304D200000000000000019FF20000000000000002FFF2033
:203AB600000000000000002FFF20000000000000002FFF20000000000000002FFF20000006
:203AD60000000000002FFF20000000000000002FFF20000000000000002FFF2000000000E6
:203AF6000000002FFF200000022222222207F70000007FFFFFFFFF9040000007FFFFFFFF8C
:203B1600FFF70000006FFFFFFFFFFF700000002222222222220000000000000000000000F3
:203B360000000000000000000000000000000000000000000000000000000000000000006F
:203B560000000000000000000000000000000000000000000000000000000000000000004F
:203B760000000000000000000000000000000000000000000000000000000000000000002F
:203B960000000000000000000000000000000000000000000000000000000000000000000F
:203BB6000000000000000000000000000000000000000000000000000000000000000000EF
:203BD6000000000000000000000000000000000000000000000000000000000000000000CF
:203BF6000000000000000000000000000000000000000000000000000000000000000000AF
:203C1600000000000000000000000000000000000000000000000000000000000000035536
:203C360055555553000000001DFFFFFFFFD0000000009FFFFFFFFF3000000005FFFFFFFF67
:203C5600F80000000000000000000000000000000000000000000000000000000000000056
:203C760000000000000000000000000000000000000000000000000000000000000000002E
:203C960000000000000000000000000000000000000000000000000000000000000000000E
:203CB6000000000000000000000000000000000000000000000000000000000000000000EE
:203CD6000000000000000000000000000000000000000000000000000000000000000000CE
:203CF6000000000000000000000000000000000000000000000000000000000000000000AE
:203D160000000000000000000000000000000000000000000000000000000000000000008D
:203D360000000000000000000000000000000000000000000000000000000000000000006D
:203D560000000000000000000000000000000000000000000000000000000000000000004D
:203D760000000000000000000000000000000000000000000000000000000000000000002D
:203D960000000000000000000000000000000000000000000000000000000000000000000D
:203DB6000000000000000000000000000000000000000000000000000000000000000000ED
:203DD6000000000000000000000000000000000000000000000000000000000000000000CD
:203DF60000000000000000000000000155510000000000000002FFF2000000000000000211
:203E1600FFF20000000000000002FFF20000000000000002FFF20000000000000002FFF2C2
:203E36000000000000000002FFF20000000000000000000000000000000000000000000079
:203E560000000000000000000000000000000000000000000000000000000000000000004C
:203E760009B500000000000000000000004BA1000009B60005CDDDDDDDDDDDDC80003BB158
:203E9600BFFF3000000000000000000002FFFB00009FFF403FFFFFFFFFFFFFFFF801FFFE16
:203EB600FFFF6000000000000000000005FFFF0000CFFF807FFFFFFFFFFFFFFFFD03FFFFC7
:203ED600FFFF6000000000000000000005FFFF0000BFFF702FFFFFFFFFFFFFFFF603FFFF1E
:203EF600FFFF6000000000000000000005FFFF0000BFFF700377778FFFF977775003FFFF66
:203F1600FFFF6000000000000000000005FFFF0000BFFF700000000EFFF100000003FFFFFD
:203F3600FFFF6000000000000000000005FFFF0000BFFF700000000EFFF300000003FFFFDB
:203F5600FFFF6000000000000000000005FFFF0000BFFF700000000EFFF300000003FFFFBB
:203F7600FFFF6000000000000000000005FFFF0000BFFF700000000EFFF300000003FFFF9B
:203F9600FFFF4000000000000000000003FFFF0000BFFF700000000EFFF300000003FFFF9D
:203FB600FFFFB00000000000000000000AFFFF0000BFFF700000000EFFF300000003FFFF06
:203FD600EFFFFB000000000000000000AFFFFE0000BFFF700000000EFFF300000003FFFF07
:203FF6004FFFFFA00000000000000009FFFFF60000BFFF700000000EFFF300000003FFFF92
:2040160006FFFFFA000000000000008FFFFF700000BFFF700000000EFFF300000003FFFF60
:20403600006FFFFFA0000000000009FFFFF7000000BFFF700000000EFFF300000003FFFF30
:204056000007FFFFF800000000008FFFFF80000000BFFF700000000EFFF300000003FFFF11
:2040760000007FFFFF9000000008FFFFF800000000BFFF700000000EFFF300000003FFFFF0
:20409600000007FFFFFA0000008FFFFF8000000000BFFF700000000EFFF300000003FFFFCF
:2040B6000000008FFFFF900007FFFFF90000000000BFFF700000000EFFF300000003FFFFA0
:2040D60000000008FFFFF8007FFFFF900000000000BFFF700000000EFFF300000003FFFF90
:2040F600000000009FFFFF66FFFFF9000000000000BFFF700000000EFFF300000003FFFF81
:204116000000000009FFFFFFFFFF90000000000000BFFF700000000EFFF300000003FFFFC6
:2041360000000000009FFFFFFFF900000000000000BFFF700000000EFFF300000003FFFFA5
:20415600000000000007FFFFFF8000000000000000BFFF700000000EFFF300000003FFFF96
:20417600000000000003FFFFFF5000000000000000BFFF700000000EFFF300000003FFFFAA
:2041960000000000005FFFFFFFF600000000000000BFFF700000000EFFF300000003FFFF88
:2041B6000000000006FFFFFFFFFF60000000000000BFFF700000000EFFF300000003FFFF59
:2041D600000000005FFFFFA9FFFFF6000000000000BFFF700000000EFFF300000003FFFFA0
:2041F60000000005FFFFFC00BFFFFF600000000000BFFF700000000EFFF300000003FFFF5E
:204216000000005FFFFFC0000BFFFFF60000000000BFFF700000000EFFF300000003FFFF3D
:20423600000004FFFFFD000000CFFFFF5000000000BFFF700000000EFFF300000003FFFF1D
:2042560000004FFFFFC00000000CFFFFF500000000BFFF700000000EFFF300000003FFFF0D
:204276000004FFFFFC0000000000CFFFFF50000000BFFF700000000EFFF300000003FFFFDE
:20429600003FFFFFD000000000000CFFFFF4000000BFFF700000000EFFF300000003FFFFCE
:2042B60003FFFFFD00000000000000CFFFFF400000BFFF700000000EFFF300000003FFFFAE
:2042D6002FFFFFD0000000000000000CFFFFF30000BFFF600000000EFFF300000001FFFFB1
:2042F600DFFFFE000000000000000000DFFFFD0000BFFFB00000000FFFF400000007FFFF7C
:20431600FFFFD107CCCCCCCCCCCCCC800CFFFF0000CFFFFA0000000FFFF30000006FFFFF5D
:20433600FFFF505FFFFFFFFFFFFFFFF604FFFF00004FFFFFA0000007FFC0000006FFFFF81A
:20435600FFFF509FFFFFFFFFFFFFFFFB04FFFF000006FFFFF9000000560000005FFFFFB004
:20437600FFFF603FFFFFFFFFFFFFFFF405FFFF0000007FFFFF90000000000005FFFFFB008F
:20439600FFFF6003777777777777773005FFFF00000007FFFFFA00000000005FFFFFB00026
:2043B600FFFF6000000000000000000005FFFF000000007FFFFF9000000004FFFFFC00007B
:2043D600FFFF6000000000000000000005FFFF0000000008FFFFF95555547FFFFFC000002C
:2043F600FFFF6000000000000000000005FFFF00000000008FFFFFFFFFFFFFFFFC000000C2
:20441600FFFF6000000000000000000005FFFF000000000009FFFFFFFFFFFFFFD000000053
:20443600EFFF4000000000000000000003FFFE0000000000009FFFFFFFFFFFFD00000000A1
:204456002DE900000000000000000000008ED300000000000007EFFFFFFFFFB0000000002D
:20060500E5A104F5A1E5A104F5A1E5A104F5A1E5A104F5A1E5A104F5A1E5A104F5A1E5A18F
:2006250004F5A1E5A104F5A122E582900C5CF0C2C1C2C0C2B6120605900C5CE0F58012068B
:2006450005D2B6120605D2C122E582900C5EF0C2C1C2C0C2B6120605900C5EE0F5801206E4
:2006650005D2B6120605D2C0C2B6120605900C5DE0F580120605D2B6120605D2C122E58278
:20068500900C61F0C2C1C2C0C2B6120605900C61E0F580120605D2B6120605D2C0C2B6129E
:2006A5000605900C5FE0FEA3E0FF8E80C007C006120605D2B6120605C2B6120605D006D037
:2006C500078F80120605D2B6120605D2C122AF83E582900C68F0EFA3F0900C68E0FEA3E014
:2006E500C313CE13CEC313CE13CE900C4FEEF0900C62E0FDA3E0900C50EDF0900C64E0FC1F
:20070500A3E0FF1CBCFF011FEFC313CC13CCC313CC13CCEC2EFC900C51F0900C66E0FBA3F7
:20072500E0EB2D14900C52F07F00741C2EFEE43FFF7D00741C2CFCE43D8C05E44206ED422B
:2007450007900C5FEEF0EFA3F0758215120683900C52E0FE7F00900C50E07C004207EC4281
:2007650006900C5FEFF0EEA3F0758275020683AF83E582900C74F0EFA3F0900C74E0FEA370
:20078500E0FF900C6AE0FCA3E0FD900C6CE0FAA3E0FB900C6EE0F8A3E0F9900C62ECF0ED8E
:2007A500A3F0900C64EAF0EBA3F0900C66E8F0E9A3F08E828F83C003C002C001C0001206B3
:2007C500D375825C12062ED000D001D002D003D2C0C2C1900D1EE8F0E9A3F08A828B831212
:2007E5002177AE82E583C313CE13CEFF900C4DEEF0EFA3F0900C70E0FDA3E0FEA3E0FF907B
:200805000C70E0F5F0A3E045F0704B900C5AE4F0A3F0900C73E0FC900C5AE0FAA3E0FB90F9
:200825000C4DE0F8A3E0F9C3EA98EB9940030208C7C2B6C004120605D0048C80C004120614
:2008450005D2B6120605D004900C5AE02401F0A3E03400F080C1900C5AE4F0A3F0900C5AEF
:20086500E0FBA3E0FC900C4DE0F9A3E0FAC3EB99EC9A504EC2B6C007C006C005120605D0B8
:2008850005D006D007900C5AE0FBA3E0FCEB2DFBEC3EFC8F028B828C838AF0122296F580B2
:2008A500C007C006C005120605D2B6120605D005D006D007900C5AE02401F0A3E03400F00B
:2008C500809BD2C12275C203D2A0D2B6D2B7D2C0D2C17580FFC2A090012C12183FD2A090E3
:2008E500003212183F900C5D7412F07582FD12064E7582AE12062E900C5D7491F07582B30C
:2009050012064E900C5D743FF07582CA12064E900C5DE4F07582A212064E900C5DE4F0759B
:2009250082A112064E900C5D7414F07582A012064E900C5DE4F07582B512064E900C5D746F
:2009450001F07582AB12064E900C5F74A0F074FDA3F07582B4120683900C5D74FFF07582FD
:20096500C112064E900C5D740FF07582C712064E7582B912062E900C5D74E2F07582B112CC
:20098500064E900C5F7482F07420A3F07582D1120683900C5D741FF07582BB12064E900C63
:2009A5005D7408F07582B612064E900C5D7407F07582BE12064E7582A412062E9000321222
:2009C500183F7582AF12062E90006412183F7582001209E27582A612062E02019BE5829006
:2009E5000C76F0E053E00FF0900C76E0FFFEEEC454F04207900C4CEFF0900C6AE4F0A3F00C
:200A0500900C6CF004A3F0900C6E7440F0E4A3F0900C70F0A3F0A3F0900C73EFF09000007D
:200A25000207747582FF120483AD82AE83AFF0900C46EDF0EEA3F0EFA3F0900BDD7449F0BF
:200A4500740CA3F0E4A3F0900BE0744AF0740CA3F0E4A3F08D828E838FF01204BF758200E9
:200A65001209E2900C49E0FF7E00900C4AE0FD7C00900C46E0F9A3E0FAA3E0FB900C8274AB
:200A850020F0E4A3F0900C84EFF0EEA3F0900C86EDF0ECA3F0900C88E9F0EAA3F0EBA3F0D4
:200AA500900080020B18AF83E582900C80F0EFA3F0900C80E0FEA3E0FF900C77E0FCA3E0E7
:200AC500FD900C79E0F523A3E0F524900C7BE0F521A3E0F522900C7DE0F8A3E0F9A3E0FBD9
:200AE500900C6AECF0EDA3F0900C6CE523F0E524A3F0900C6EE521F0E522A3F0900C70E865
:200B0500F0E9A3F0EBA3F0900C73E4F08E828F83020774AF83E582900C8BF0EFA3F0900C96
:200B250084E0FEA3E0FF8E048F05EDC313CC13CCFD900C8BE0FAA3E0FBEAC39CFCEB9DFDF2
:200B45008C278D28900C86E0FAA3E0FB8A008B018825E9C313C52513C525F526900C82E02C
:200B6500F8A3E0F9E8C39525F8E99526F988258926900C88E0F8A3E0F9A3E0FD900C77E5B6
:200B850025F0E526A3F0900C79EEF0EFA3F0900C7BEAF0EBA3F0900C7DE8F0E9A3F0EDA3BC
:200BA500F0852782852883020AABAF83E582900C97F0EFA3F0900C8FE0FEA3E0FFE4C39E1D
:200BC500FC74019FFD900C97E0FAA3E0FBC3EC9AED9B5021900C97E4F0A3F0900C91E0FC93
:200BE500A3E0FD900C8DE0FAA3E0FB900C8DEC2AF0ED3BA3F0900C57E4F0900C93E0FDC46E
:200C0500540FFC8D31900C94E0F532A3E0F533A3E0F534900C97E0F529A3E0F52A900C8D28
:200C2500E0F52BA3E0F52C900C91E0F52DA3E0F52EC004A82DAC2E882FECC423C52FC4235E
:200C4500541F652FC52F541FC52F652FC52FF530900C57E0F87C00C3E8952FEC9530D00445
:200C6500400122900C58E4F0C004900C58E0F8FC7D00C3EC9EED9FD0044003020E07C00470
:200C85007D00740358FB900C4CEBF0900C57E0900D1EF0E4A3F08E828F83C007C006C005DC
:200CA500C000122177AB82AC83D000D005D006D007E82BFBED3CFC900C4DEBF0ECA3F09011
:200CC5000C59E4F0D004C004900C59E0900D1EF0E4A3F08E828F83C007C006C0041221772A
:200CE500AB82AD83D004D006D007900C58E0F97A00E92BFBEA3DC313CB13CBC313CB13CB96
:200D0500900C4BEBF0EB75F002A424E6FB740B35F0FD8B828D83E0F9A3E0FA900C4CE090A5
:200D2500447693F888F005F0780F7C008006E828F8EC33FCD5F0F7E8F4F8ECF4FCE85201A9
:200D4500EC52028B828D83E9F0EAA3F0900C4BE075F002A424E6F52F740B35F0F530852F5E
:200D650082853083E0F535A3E0F536900C4DE0FCA3E0FDEC2532FCED3533FDAB348C828DAC
:200D8500838BF0122296FC900C59E0FD8DF005F07D017B008006ED2DFDEB33FBD5F0F77A61
:200DA50000EC5205EA5203D004ED4B6009AB3153030F7D0080048C037D00900C4CE090444D
:200DC5007693FA8AF005F08006EB2BFBED33FDD5F0F7A935AA36EB4201ED4202852F828554
:200DE5003083E9F0EAA3F0900C59E02401F0E0FDBD08005003020CCB900C58E02401F00242
:200E05000C6D900C57E0FDE4C40354F8CDC403CD6DCD54F8CD6DFBA92BAA2CED29F9EB3A93
:200E2500FA900C77E9F0EAA3F0900C79EEF0EFA3F0900C7B7408F0E4A3F0900C7D74E6F078
:200E4500740BA3F0E4A3F0852982852A83C007C006C004120AABD004D006D007900C57E036
:200E65002401F0020C36AF83E582900C9EF0EFA3F0900C9DE024E0F0900C9BE0F58212041E
:200E850083AD82AE83AFF0900C46EDF0EEA3F0EFA3F0900BDD7449F0740CA3F0E4A3F090CA
:200EA5000BE0744AF0740CA3F0E4A3F08D828E838FF01204BF900C9EE0FEA3E0FF900C99C7
:200EC500E0FCA3E0FD900C49E0FB8B37753800900C4AE0F88839753A00900C9CE0F53B907C
:200EE5000C9DE0F5F0EBA4F9ABF0900D1EE8F0E4A3F089828B83C007C006C005C0041221F0
:200F050077A982AB83900D207408F0E4A3F089828B8312219785823C85833DD004D005D078
:200F250006D007900C46E0F8A3E0FAA3E0FBE53C28F8E53D3AFA900C8DECF0EDA3F0900C62
:200F45008FE537F0E538A3F0900C91E539F0E53AA3F0900C93E53BF0900C94E8F0EAA3F090
:200F6500EBA3F08E828F83C007C006120BAFD006D007900C49E0FDE4FCC39DFD74019CFCBA
:200F8500C3ED9EEC9F5007900C9EE4F0A3F022AFF0AE83E582900CA4F0EEA3F0EFA3F0905F
:200FA5000C55E4F0900CA4E0FDA3E0FEA3E0FF900C55E0FC2DF9E43EFA8F0389828A838B93
:200FC500F01222966008900C55EC04F080E17F001CBCFF011F900CA0E0FAA3E0FBA3E0FD2E
:200FE500A3E0FE8C00EFF93395E0FCFFEAB50012EBB5010EEDB5040AEEB507067C017F0098
:2010050080047C007F008C3E900C55E53EF0900CA4E0F53FA3E0F540A3E0F541EA253FF972
:20102500EB3540FCAF4189828C838FF0122296FF900C53F0E53E600679007C0080240ABA38
:2010450000090BBB00050DBD00010EEA253FFAEB3540FBAD418A828B838DF0122296FAF9F9
:201065007C00900C54E9F0BFA1004005B9A10050067DFF7EFF80307C00EF245FFFEC34FF1C
:20108500FC900D1EEFF0ECA3F090005EC001122177AC82AF83D0017B00E9245FF9EB34FFAE
:2010A500FBE92CFDEB3FFE8D828E8322AF83E582900CAEF0EFA3F0900C56E4F0900CA9E074
:2010C500F548854882120483AC82AD83AEF0900C46ECF0EDA3F0EEA3F0900BDD7449F07492
:2010E5000CA3F0E4A3F0900BE0744AF0740CA3F0E4A3F08C828D838EF01204BF900CAAE08B
:20110500FEC4540FF547900CABE0F549A3E0F54AA3E0F54B854942854A43854B448E468EE7
:2011250045C006900C56E02542F8E43543F9AE44888289838EF0122296D006700122C0069A
:20114500900C4AE0F879007440C398F8E499F9900CA7E0FDA3E0FEC3E89DE99ED006501729
:20116500900CAEE4F0A3F0900CA7F0A3F0854782C0061209E2D006C006900C56E0900CA038
:20118500F0E4A3F0A3F0A3F08542828543838544F0C006120F94A982AD83D006900C4DE9F2
:2011A500F0EDA3F089008D06B8FF05BEFF028005D0060213B2900C56E0F82549FCE4354A6A
:2011C500FEAF4B8C828E838FF0122296F54C740AB54C028004D006802FD006900C56E8042B
:2011E500F0900CAEE4F0A3F0900C4AE0FF7C00900CA7E0FAA3E0FBEF2AFAEC3BFB900CA7F5
:20120500EAF0EBA3F00211267408B54C06900C56E804F0900C56E0FF2549FAE4354AFBACA4
:201225004B8A828B838CF0122296FCBC08028039BC0A02800302130FC006900C56EF04F079
:20124500900CAEE4F0A3F0900C4AE0FB7A00900CA7E0F8A3E0FEEB28F8EA3EFE900CA7E8A5
:20126500F0EEA3F0D006021126C006900C56EF04F0900CAEE0FBA3E0FF900C49E0FAF87E72
:2012850000C3EB98EF9ED0064019C0068A007E00EBC398FBEF9EFF900CAEEBF0EFA3F0D035
:2012A50006802FE4FFC39AFA74019FFF900CAEEAF0EFA3F0900C4AE0FF7B00900CA7E0F826
:2012C500A3E0FAE8C39FF8EA9BFA900CA7E8F0EAA3F0900CAEE0FBA3E0FF900CA7E0F8A3CE
:2012E500E0FA900C99E8F0EAA3F0900C9BE548F0900C9CE546F0900C9D7420F08B828F8302
:20130500C006120E6BD006021126C006900CAEE0FBA3E0FF900CA7E0F8A3E0FA900C99E846
:20132500F0EAA3F0900C9BE548F0900C9CE545F0900C9DECF08B828F83C007C006C003C051
:2013450002C000120E6BD000D002D003D006D007900C49E0FC7E008B4D8F4E8C038E07EB16
:20136500254DFBEF354EFF900CAEEBF0EFA3F0E4C39CFC74019EFE900CAEE0FBA3E0FFC329
:20138500EB9CEF9ED006401B900CAEE4F0A3F0900C4AE0FF7C0028F8EC3AFA900CA7E8F0B6
:2013A500EAA3F0900C56E02401F0021126E4FFC42354E0CFC423CF6FCF54E0CF6FFCEDC4AB
:2013C50023541F4FFFEDC42354E0C9C423C969C954E0C969FD74082FFFE43CFC900BC77472
:2013E50026F0740CA3F0E4A3F0900BCA7420F0E4A3F089828D838FF0ECC006120270D00642
:20140500900CAEE0FDA3E0FF900CA7E0FBA3E0FC900C8DEBF0ECA3F0900C8F7410F0E4A3D8
:20142500F0900C917410F0E4A3F0900C93EEF0900C947426F0740CA3F0E4A3F08D828F832D
:20144500C007C006C005C004C003120BAFD003D004D005D006D00774102DFDE43FFF900C4D
:20146500AEEDF0EFA3F0900CAEE0FDA3E0FFC3ED94F0EF94004016900CAEE4F0A3F074106F
:201485002BFBE43CFC900CA7EBF0ECA3F0900C56E0FF2402F0021126AF83E582900CB7F06C
:2014A500EFA3F0900CB2E0FFF582C007120483AC82AD83AEF0900BDD7449F0740CA3F0E489
:2014C500A3F0900BE0744AF0740CA3F0E4A3F08C828D838EF01204BFD007900C55E4F09024
:2014E5000CB4E0FCA3E0FDA3E0FE900C55E0FB2CF8E43DF98E02888289838AF012229660F6
:2015050008900C55EB04F080E1900C49E08BF0A4FAABF0900D207402F0E4A3F08A828B8360
:20152500C007C006C005C004122197AA82AB83D004D005D006D007900CB7E0F8A3E0F9E887
:20154500C39AF8E99BF9900CB0E0F54FA3E0F550900CB3E0FB900CA7E54FF0E550A3F09093
:201565000CA9EFF0900CAAEBF0900CABECF0EDA3F0EEA3F0888289830210B1AF83E582908B
:201585000CC0F0EFA3F0900CBFE053E00FF0900CBFE0FFFEEEC454F04207900C4CEFF090CD
:2015A5000CC0E0FDA3E0FE900CB9E0FBA3E0FC900CBBE0F551A3E0F552900CBDE0F8A3E052
:2015C500FA900C6AEBF0ECA3F0900C6CE551F0E552A3F0900C6EE8F0EAA3F0900C70E4F075
:2015E500A3F0A3F0900C73EFF08D828E83020774AF83E582900CC9F0EFA3F0900CC4E0FE87
:20160500A3E0FF8E048F05EDC313CC13CCFD900CC9E0FAA3E0FBEAC39CFCEB9DFD900CC6C9
:20162500E0FAA3E0FB8A008B018853E9C313C55313C553F554900CC2E0F8A3E0F9E8C3951F
:2016450053F8E99554F988538954900CC8E0F9900CB9E553F0E554A3F0900CBBEEF0EFA36A
:15166500F0900CBDEAF0EBA3F0900CBFE9F08C828D83021580E6
:0444760004000C082A
:0400B800C200C201BF
:20167A00AFF0AE83E582900CD0F0EEA3F0EFA3F0900CCBE4F0A3F0900CD0E0FDA3E0FEA37F
:20169A00E0FF900CCDE0FC900CCEE0FAA3E0FB900CCBE0F8A3E0F9C3E89AE99B5028C0028C
:2016BA00C003E82DF8E93EF98F03888289838BF0EC12215C900CCBE02401F0A3E03400F07F
:2016DA00D003D00280C922AFF0AE83E582900CD8F0EEA3F0EFA3F0900CD8E0FDA3E0FEA3CD
:2016FA00E0FF900CD3E0F55CA3E0F55DA3E0F55EC05CC05DC05E8D828E838FF01200311558
:20171A0081158115814003021799900CCBE4F0A3F08D558E568F57900CD6E0F558A3E0F57C
:20173A0059900CCBE0F55AA3E0F55BE55A2555F55FE55B3556F560855761E55A255CFAE5C4
:20175A005B355DFBAC5E8A828B838CF0122296855F828560838561F012215C900CCBE0FBA8
:20177A00A3E0FC900CCB74012BF0E43CA3F0900CCBE0FBA3E0FCEBB558A7ECB559A3229077
:20179A000CD6E0FBA3E0FC1BBBFF011C900CCBEBF0ECA3F0900CCBE0FBA3E0FCEB2DF8EC83
:2017BA003EF98F02C005C006C007EB255CFBEC355DFCAF5E8B828C838FF01222968882890F
:2017DA00838AF012215C900CCBE0F55FA3E0F560D007D006D005900CCBE0F5F0A3E045F08A
:2017FA006014E55F24FFFBE56034FFFC900CCBEBF0ECA3F0809E2275A15575A1AA53B3E073
:20181A0043B30775B2FC75A1FF75A15575A1AA43B34090000A12183F75A15575A1AA53B3E4
:20183A007F75A1FF22AF83E582900CDBF0EFA3F0900CDBE0FEA3E0FFEE4F601D9003E8C08A
:20185A0007C00612187CD006D0071EBEFF011F900CDBEEF0EFA3F080DF900CDBEEF0EFA336
:20187A00F022AF83E582900CDDF0EFA3F0900CDDE0FEA3E0FFEE4F603505A105A105A10516
:20189A00A105A105A105A105A105A105A105A105A105A105A105A105A105A105A105A11EB5
:2018BA00BEFF011F900CDDEEF0EFA3F080C7900CDDEEF0EFA3F02253C9BFC2C975CC5F759B
:2018DA00CDF075CA5F75CBF0D2CAD2AD22C0E0C082C083C0D075D00810CF028021900D2BDA
:2018FA00E0FCA3E0FDA3E0FEA3E0FF900D2B74012CF0E43DA3F0E43EA3F0E43FA3F0D0D057
:20191A00D083D082D0E032900D2BE0FCA3E0FDA3E0FEA3E08C828D838EF022AF82AE83AD31
:20193A00F0FC900CE5EFF0EEA3F0EDA3F0ECA3F0C29FD29EC29DC2CCC2CD438780900CE5A9
:20195A00E0FCA3E0FDA3E0FEA3E0FF900D10ECF0EDA3F0EEA3F0EFA3F090380075F09C74C5
:20197A001C122068AC82AD83AEF0FFEDC4CCC4540F6CCC540FCC6CCCFDEEC454F04DFDEF2D
:20199A00C4CEC4540F6ECE540FCE6ECEFF900D07740AF0E4A3F0A3F0A3F08C828D838EF081
:2019BA00EFC007C006C005C004121F28A882D004D005D006D007900CE3E8F0900D10740AAD
:2019DA00F0E4A3F0A3F0A3F08C828D838EF0EFC000122068AC82AD83AEF0FFD000900CDF35
:2019FA00ECF0EDA3F0EEA3F0EFA3F0B805004013900CDF74012CF0E43DA3F0E43EA3F0E405
:201A1A003FA3F0740F55894420F58943C9A0900CDFE0FCA3E0A3E0A3E0C3E49CF58DD28EE6
:201A3A00D299D29CD2AC22C0E0C0F0C082C083C0D075D0081099028002C200109802806FD9
:201A5A0030014B900D50E0FDA3E0FEA3E0FF900D53E0FBA3E0FCEB2DFDEC3EFE8D828E837C
:201A7A008FF0E59912215C900D53E02401F0A3E03400F0900D53E0FEA3E0FF900D55E0FC16
:201A9A00A3E0FDC3EE9CEF9D4025C2018021900D4FE0FFBF20005017900D4FE0242FF58263
:201ABA00E4340DF583E599F0900D4FE0FF04F0D0D0D083D082D0F0D0E032E582900CE9F07F
:201ADA002000FDD200900CE9E0F59922AFF0AE83E582900CEAF0EEA3F0EFA3F0900CEAE0D2
:201AFA00FDA3E0FEA3E0FF8D828E838FF0122296FC60230DBD00010E900CEAEDF0EEA3F027
:201B1A00EFA3F08C82C007C006C005121AD4D005D006D00780D1900CEAEDF0EEA3F0EFA380
:201B3A00F022900D4FE06060900D2FE0900CE4F0900D4FE014F0E06025900D4FE0FF7E0053
:201B5A00900CD37430F0740DA3F0E4A3F0900CD6EFF0EEA3F0900D2F75F0001216E1900D34
:201B7A004FE0242FFFE4340DFE7D00900CCDE4F0900CCE04F0E4A3F08F828E838DF0121651
:201B9A007A900CE4E0F5822275820022AFF0AE83E582900CEEF0EEA3F0EFA3F0900D4FE01F
:201BBA00FF900CEDE0FEC3EF9E5003021C67900CEEE0FCA3E0FDA3E0FF900CD3742FF0749F
:201BDA000DA3F0E4A3F08E027B00900CD6EAF0EBA3F08C828D838FF0C006C003C0021216EF
:201BFA00E1D002D003D006900D4FE0C39EF0E06035EE242FFEE4340DFF7D00900D4FE0F938
:201C1A007C00900CD3EEF0EFA3F0EDA3F0900CD6E9F0ECA3F0900D2F75F000C003C002124D
:201C3A0016E1D002D003900D4FE0242FFFE4340DFE7D00900CCDE4F0900CCEEAF0EBA3F031
:201C5A008F828E838DF012167A7582012275820022AFF0AE83E582900CF3F0EEA3F0EFA32D
:201C7A00F0900CF3E0FDA3E0FEA3E0FF900CF3E0F5F0A3E045F06026900D50EDF0EEA3F00E
:201C9A00EFA3F0900D53E4F0A3F0900CF1E0FEA3E0FF900D55EEF0EFA3F0D2018030900CF3
:201CBA00F1E0F5F0A3E045F0600D900D53E0FEA3E0FF8E828F8322C201900D50E4F0A3F084
:201CDA00A3F0900D53F0A3F0900D55F0A3F090000022AF82AE83ADF0FC900CF6EFF0EEA3C0
:201CFA00F0EDA3F0ECA3F0439380759701900CF6E0FCA3E0FDA3E0FEA3E0FF900D10ECF0FE
:201D1A00EDA3F0EEA3F0EFA3F090870075F0937403122068AC82AD83AEF0FF900D07740AE9
:201D3A00F0E4A3F0A3F0A3F08C828D838EF0EFC007C006C005C004121F28A882D004D0052F
:201D5A00D006D007900CE3E8F0900D10740AF0E4A3F0A3F0A3F08C828D838EF0EFC0001250
:201D7A002068AC82AD83AEF0FFD000900CDFECF0EDA3F0EEA3F0EFA3F0B805004013900C70
:201D9A00DF74012CF0E43DA3F0E43EA3F0E43FA3F0900CDFE0FCA3E0FDA3E0A3E08D918C13
:201DBA009A53937F43A2104393035393F3439130439488900CE3E592F0E5977597FFD2ECD5
:201DDA000218D1E582900CFAF0E59530E5FB900CFAE0F59A22AFF0AE83E582900CFBF0EEB4
:201DFA00A3F0EFA3F0900CFBE0FDA3E0FEA3E0FF8D828E838FF0122296FC60230DBD00018A
:201E1A000E900CFBEDF0EEA3F0EFA3F08C82C007C006C005121DDDD005D006D00780D19054
:201E3A000CFBEDF0EEA3F0EFA3F022121921AC82AD83AEF0FF900CFEECF0EDA3F0EEA3F0C1
:201E5A00EFA3F0E59520E03D121921AC82AD83AEF0FF900CFEE0F8A3E0F9A3E0FAA3E0FBFF
:201E7A00ECC398FCED99FDEE9AFEEF9BFFC374E89C74039DE49EE49F50C9900CFEE4F0A375
:201E9A00F0A3F0A3F0859A8222AFF0AE83E582900D04F0EEA3F0EFA3F0900D02E4F0900D74
:201EBA0004E0FDA3E0FEA3E0FF900D03E0FC900D02E0FBC39C5053EB2DF9E43EFA8F03C0AD
:201EDA0007C006C005C004C003C002C001121E45A882D001D002D003D004D005D006D007E1
:201EFA0089828A838BF0E812215C900CFEE0F5F0A3E042F0A3E042F0A3E045F07003F58253
:0E1F1A0022900D02E02401F080A475820122C5
:20447A00000000000000000000000000000000000000000000000000000000000000000022
:0C449A0000000000000000000000000016
:201F2800AF82AE83ADF0FC900D0BEFF0EEA3F0EDA3F0ECA3F0900D0FE4F0900D0BE0FCA3F0
:201F4800E0FDA3E0FEA3E0FF7B00900D07E0F555A3E0F556A3E0F557A3E0F558235401FA71
:201F68007074C003E5552555F8E55633F9E55733FAE55833FB900D07E8F0E9A3F0EAA3F056
:201F8800EBA3F0900D07E0F555A3E0F556A3E0F557A3E0F558C3EC9555ED9556EE9557EF46
:201FA8009558D0035027E558C313F558E55713F557E55613F556E55513F555900D07F0E53E
:201FC80056A3F0E557A3F0E558A3F080090B900D0FEBF0021F52900D0FE0FF900D0BE0FBD5
:201FE800A3E0FCA3E0FDA3E0FE900D07E0F555A3E0F556A3E0F557A3E0F558C3EB9555EC9A
:202008009556ED9557EE95584017900D0BEBC39555F0EC9556A3F0ED9557A3F0EE9558A33E
:20202800F0900D07E0FBA3E0FCA3E0FDA3E0C313FEED13FDEC13FCEB13900D07F0ECA3F0CA
:20204800EDA3F0EEA3F08F061FEE708F900D0BE0FCA3E0FDA3E0FEA3E08C828D838EF02210
:20206800AF82AE83ADF0FC900D14EFF0EEA3F0EDA3F0ECA3F0900D18E4F0A3F0A3F0A3F00B
:20208800900D10E0FCA3E0FDA3E0FEA3E0FF7B20C003900D14E0F8A3E0F9A3E0FAA3E0FBCE
:2020A800900D1C235401F0E828F8E933F9EA33FAEB33FB900D14E8F0E9A3F0EAA3F0EBA39A
:2020C800F0900D18E0F8A3E0F9A3E0FAA3E0FBE828F8E933F9EA33FAEB33FB900D18E8F02A
:2020E800E9A3F0EAA3F0EBA3F0D003900D1CE06008900D18E043E001F0900D18E0F555A362
:20210800E0F556A3E0F557A3E0F558C3E5559CE5569DE5579EE5589F401F900D18E555C3B5
:202128009CF0E5569DA3F0E5579EA3F0E5589FA3F0900D14E043E001F01BEB6003022098FC
:14214800900D14E0FCA3E0FDA3E0FEA3E08C828D838EF022B4
:06008E00E478FFF6D8FD46
:20006C00792CE94400601B7A0190447A782B75A00DE493F2A308B8000205A0D9F4DAF27518
:02008C00A0FFD3
:1B215C0020F71130F6138883A88220F509F6A8837583002280FEF280F5F02282
:20217700AA83AB828BF0900D1EE0A4F8A9F08AF0E0A429F98BF0A3E0A429F58388822222F2
:20219700AF83E582900D22F0EFA3F0900D22E0FEA3E0FF30E709C3E49EFCE49FFD80048E4C
:2021B700048F05900D20E0FEA3E0FF33E433FB6009C3E49EF9E49FFA80048E018F02900DA9
:2021D70024E9F0EAA3F08C828D83C003122209AE82AF83D003900D22E0A3E033E4336B60E4
:1221F7000CC3E49EFCE49FFD8C828D83228E828F832285
:200094007800E84400600A790175A000E4F309D8FC782AE8440D600C790E900001E4F0A325
:0400B400D8FCD9FAA1
:20220900AF83E582900D26F0EFA3F0900D28E4F0A3F0900D24E0FEA3E0FF7D10900D26E06A
:20222900FBA3E0FC900D2A235401F0EB2BFBEC33FC900D26EBF0ECA3F0900D28E0FBA3E080
:20224900FCEB2BFBEC33FC900D28EBF0ECA3F0900D2AE06008900D28E043E001F0900D28A1
:20226900E0FBA3E0FCC3EB9EEC9F4013900D28EBC39EF0EC9FA3F0900D26E043E001F0DD1E
:0D2289009B900D26E0FEA3E08E82F58322DF
:20003100E58124FCC3C8C0E0C082E608467006E5824583601218E58296F58208E58396429D
:1B0051008208E5F0964582D082C8D0E0C8227581611222B2E582600302002EED
:1C22960020F71430F6148883A88220F507E6A88375830022E280F7E49322E02257
:0422B200758200220F
:00000001FF
